{
  "_format": "hh-sol-artifact-1",
  "contractName": "NFTStakeHelper",
  "sourceName": "contracts/NFTStakeHelper.sol",
  "abi": [
    {
      "inputs": [
        {
          "internalType": "address",
          "name": "_stakeContract",
          "type": "address"
        }
      ],
      "stateMutability": "nonpayable",
      "type": "constructor"
    },
    {
      "inputs": [],
      "name": "MathOverflowedMulDiv",
      "type": "error"
    },
    {
      "inputs": [
        {
          "internalType": "uint256",
          "name": "_id",
          "type": "uint256"
        }
      ],
      "name": "getRewardRate",
      "outputs": [
        {
          "internalType": "uint256",
          "name": "",
          "type": "uint256"
        }
      ],
      "stateMutability": "view",
      "type": "function"
    },
    {
      "inputs": [],
      "name": "getStakingStats",
      "outputs": [
        {
          "internalType": "uint256",
          "name": "totalStaked",
          "type": "uint256"
        },
        {
          "internalType": "uint256",
          "name": "totalRewardsAvailable",
          "type": "uint256"
        }
      ],
      "stateMutability": "view",
      "type": "function"
    },
    {
      "inputs": [
        {
          "internalType": "address",
          "name": "_user",
          "type": "address"
        }
      ],
      "name": "getTotalRewards",
      "outputs": [
        {
          "internalType": "uint256",
          "name": "",
          "type": "uint256"
        }
      ],
      "stateMutability": "view",
      "type": "function"
    },
    {
      "inputs": [
        {
          "internalType": "address",
          "name": "_user",
          "type": "address"
        }
      ],
      "name": "getUserStakes",
      "outputs": [
        {
          "components": [
            {
              "internalType": "uint128",
              "name": "id",
              "type": "uint128"
            },
            {
              "internalType": "uint128",
              "name": "amount",
              "type": "uint128"
            },
            {
              "internalType": "uint128",
              "name": "stakedAt",
              "type": "uint128"
            },
            {
              "internalType": "uint128",
              "name": "lastClaimed",
              "type": "uint128"
            }
          ],
          "internalType": "struct NFTStake.Stake[]",
          "name": "",
          "type": "tuple[]"
        }
      ],
      "stateMutability": "view",
      "type": "function"
    },
    {
      "inputs": [],
      "name": "stakeContract",
      "outputs": [
        {
          "internalType": "contract NFTStake",
          "name": "",
          "type": "address"
        }
      ],
      "stateMutability": "view",
      "type": "function"
    }
  ],
  "bytecode": "0x60806040523480156200001157600080fd5b50604051620012a8380380620012a88339818101604052810190620000379190620000e8565b806000806101000a81548173ffffffffffffffffffffffffffffffffffffffff021916908373ffffffffffffffffffffffffffffffffffffffff160217905550506200011a565b600080fd5b600073ffffffffffffffffffffffffffffffffffffffff82169050919050565b6000620000b08262000083565b9050919050565b620000c281620000a3565b8114620000ce57600080fd5b50565b600081519050620000e281620000b7565b92915050565b6000602082840312156200010157620001006200007e565b5b60006200011184828501620000d1565b91505092915050565b61117e806200012a6000396000f3fe608060405234801561001057600080fd5b50600436106100575760003560e01c80631a1862271461005c5780632bcf161c1461007a578063842e2981146100aa578063a6513562146100da578063c1dd60841461010a575b600080fd5b610064610129565b6040516100719190610a69565b60405180910390f35b610094600480360381019061008f9190610ad6565b61014d565b6040516100a19190610b1c565b60405180910390f35b6100c460048036038101906100bf9190610ad6565b6102e5565b6040516100d19190610c66565b60405180910390f35b6100f460048036038101906100ef9190610cb4565b610569565b6040516101019190610b1c565b60405180910390f35b6101126106b1565b604051610120929190610ce1565b60405180910390f35b60008054906101000a900473ffffffffffffffffffffffffffffffffffffffff1681565b60008060008054906101000a900473ffffffffffffffffffffffffffffffffffffffff1673ffffffffffffffffffffffffffffffffffffffff1663313da78f846040518263ffffffff1660e01b81526004016101a99190610d19565b600060405180830381865afa1580156101c6573d6000803e3d6000fd5b505050506040513d6000823e3d601f19601f820116820180604052508101906101ef9190610ea2565b90506000805b82518110156102da57600083828151811061021357610212610eeb565b5b6020026020010151905060008054906101000a900473ffffffffffffffffffffffffffffffffffffffff1673ffffffffffffffffffffffffffffffffffffffff16631852e8d987836040518363ffffffff1660e01b8152600401610278929190610f1a565b602060405180830381865afa158015610295573d6000803e3d6000fd5b505050506040513d601f19601f820116820180604052508101906102b99190610f43565b836102c49190610f9f565b92505080806102d290610fd3565b9150506101f5565b508092505050919050565b606060008060009054906101000a900473ffffffffffffffffffffffffffffffffffffffff1673ffffffffffffffffffffffffffffffffffffffff1663313da78f846040518263ffffffff1660e01b81526004016103439190610d19565b600060405180830381865afa158015610360573d6000803e3d6000fd5b505050506040513d6000823e3d601f19601f820116820180604052508101906103899190610ea2565b905060008151905060008167ffffffffffffffff8111156103ad576103ac610d4a565b5b6040519080825280602002602001820160405280156103e657816020015b6103d361097a565b8152602001906001900390816103cb5790505b50905060005b835181101561055d57600084828151811061040a57610409610eeb565b5b6020026020010151905060008060008060008054906101000a900473ffffffffffffffffffffffffffffffffffffffff1673ffffffffffffffffffffffffffffffffffffffff1663584b62a18c876040518363ffffffff1660e01b8152600401610475929190610f1a565b608060405180830381865afa158015610492573d6000803e3d6000fd5b505050506040513d601f19601f820116820180604052508101906104b69190611047565b93509350935093506040518060800160405280856fffffffffffffffffffffffffffffffff168152602001846fffffffffffffffffffffffffffffffff168152602001836fffffffffffffffffffffffffffffffff168152602001826fffffffffffffffffffffffffffffffff1681525087878151811061053a57610539610eeb565b5b60200260200101819052505050505050808061055590610fd3565b9150506103ec565b50809350505050919050565b60008060008054906101000a900473ffffffffffffffffffffffffffffffffffffffff1673ffffffffffffffffffffffffffffffffffffffff166328b773d7846040518263ffffffff1660e01b81526004016105c59190610b1c565b602060405180830381865afa1580156105e2573d6000803e3d6000fd5b505050506040513d601f19601f820116820180604052508101906106069190610f43565b905060008060009054906101000a900473ffffffffffffffffffffffffffffffffffffffff1673ffffffffffffffffffffffffffffffffffffffff16638ae39cac6040518163ffffffff1660e01b8152600401602060405180830381865afa158015610676573d6000803e3d6000fd5b505050506040513d601f19601f8201168201806040525081019061069a9190610f43565b90506106a881836064610873565b92505050919050565b60008060008054906101000a900473ffffffffffffffffffffffffffffffffffffffff1673ffffffffffffffffffffffffffffffffffffffff1663817b1cd26040518163ffffffff1660e01b8152600401602060405180830381865afa15801561071f573d6000803e3d6000fd5b505050506040513d601f19601f820116820180604052508101906107439190610f43565b915060008054906101000a900473ffffffffffffffffffffffffffffffffffffffff1673ffffffffffffffffffffffffffffffffffffffff1663f7c618c16040518163ffffffff1660e01b8152600401602060405180830381865afa1580156107b0573d6000803e3d6000fd5b505050506040513d601f19601f820116820180604052508101906107d491906110ec565b73ffffffffffffffffffffffffffffffffffffffff166370a0823160008054906101000a900473ffffffffffffffffffffffffffffffffffffffff166040518263ffffffff1660e01b815260040161082c9190610d19565b602060405180830381865afa158015610849573d6000803e3d6000fd5b505050506040513d601f19601f8201168201806040525081019061086d9190610f43565b90509091565b60008083850290506000801985870982811083820303915050600081036108ae578382816108a4576108a3611119565b5b0492505050610973565b8084116108e7576040517f227bc15300000000000000000000000000000000000000000000000000000000815260040160405180910390fd5b600084868809905082811182039150808303925060008560000386169050808604955080840493506001818260000304019050808302841793506000600287600302189050808702600203810290508087026002038102905080870260020381029050808702600203810290508087026002038102905080870260020381029050808502955050505050505b9392505050565b604051806080016040528060006fffffffffffffffffffffffffffffffff16815260200160006fffffffffffffffffffffffffffffffff16815260200160006fffffffffffffffffffffffffffffffff16815260200160006fffffffffffffffffffffffffffffffff1681525090565b600073ffffffffffffffffffffffffffffffffffffffff82169050919050565b6000819050919050565b6000610a2f610a2a610a25846109ea565b610a0a565b6109ea565b9050919050565b6000610a4182610a14565b9050919050565b6000610a5382610a36565b9050919050565b610a6381610a48565b82525050565b6000602082019050610a7e6000830184610a5a565b92915050565b6000604051905090565b600080fd5b600080fd5b6000610aa3826109ea565b9050919050565b610ab381610a98565b8114610abe57600080fd5b50565b600081359050610ad081610aaa565b92915050565b600060208284031215610aec57610aeb610a8e565b5b6000610afa84828501610ac1565b91505092915050565b6000819050919050565b610b1681610b03565b82525050565b6000602082019050610b316000830184610b0d565b92915050565b600081519050919050565b600082825260208201905092915050565b6000819050602082019050919050565b60006fffffffffffffffffffffffffffffffff82169050919050565b610b8881610b63565b82525050565b608082016000820151610ba46000850182610b7f565b506020820151610bb76020850182610b7f565b506040820151610bca6040850182610b7f565b506060820151610bdd6060850182610b7f565b50505050565b6000610bef8383610b8e565b60808301905092915050565b6000602082019050919050565b6000610c1382610b37565b610c1d8185610b42565b9350610c2883610b53565b8060005b83811015610c59578151610c408882610be3565b9750610c4b83610bfb565b925050600181019050610c2c565b5085935050505092915050565b60006020820190508181036000830152610c808184610c08565b905092915050565b610c9181610b03565b8114610c9c57600080fd5b50565b600081359050610cae81610c88565b92915050565b600060208284031215610cca57610cc9610a8e565b5b6000610cd884828501610c9f565b91505092915050565b6000604082019050610cf66000830185610b0d565b610d036020830184610b0d565b9392505050565b610d1381610a98565b82525050565b6000602082019050610d2e6000830184610d0a565b92915050565b600080fd5b6000601f19601f8301169050919050565b7f4e487b7100000000000000000000000000000000000000000000000000000000600052604160045260246000fd5b610d8282610d39565b810181811067ffffffffffffffff82111715610da157610da0610d4a565b5b80604052505050565b6000610db4610a84565b9050610dc08282610d79565b919050565b600067ffffffffffffffff821115610de057610ddf610d4a565b5b602082029050602081019050919050565b600080fd5b600081519050610e0581610c88565b92915050565b6000610e1e610e1984610dc5565b610daa565b90508083825260208201905060208402830185811115610e4157610e40610df1565b5b835b81811015610e6a5780610e568882610df6565b845260208401935050602081019050610e43565b5050509392505050565b600082601f830112610e8957610e88610d34565b5b8151610e99848260208601610e0b565b91505092915050565b600060208284031215610eb857610eb7610a8e565b5b600082015167ffffffffffffffff811115610ed657610ed5610a93565b5b610ee284828501610e74565b91505092915050565b7f4e487b7100000000000000000000000000000000000000000000000000000000600052603260045260246000fd5b6000604082019050610f2f6000830185610d0a565b610f3c6020830184610b0d565b9392505050565b600060208284031215610f5957610f58610a8e565b5b6000610f6784828501610df6565b91505092915050565b7f4e487b7100000000000000000000000000000000000000000000000000000000600052601160045260246000fd5b6000610faa82610b03565b9150610fb583610b03565b9250828201905080821115610fcd57610fcc610f70565b5b92915050565b6000610fde82610b03565b91507fffffffffffffffffffffffffffffffffffffffffffffffffffffffffffffffff82036110105761100f610f70565b5b600182019050919050565b61102481610b63565b811461102f57600080fd5b50565b6000815190506110418161101b565b92915050565b6000806000806080858703121561106157611060610a8e565b5b600061106f87828801611032565b945050602061108087828801611032565b935050604061109187828801611032565b92505060606110a287828801611032565b91505092959194509250565b60006110b982610a98565b9050919050565b6110c9816110ae565b81146110d457600080fd5b50565b6000815190506110e6816110c0565b92915050565b60006020828403121561110257611101610a8e565b5b6000611110848285016110d7565b91505092915050565b7f4e487b7100000000000000000000000000000000000000000000000000000000600052601260045260246000fdfea2646970667358221220a32bab544edfc4b9c08df52271fc062ebda34a3de0bf957f07fe8c1d9b6247c064736f6c63430008140033",
  "linkReferences": {},
  "deployedLinkReferences": {}
}