{
  "_format": "hh-sol-artifact-1",
  "contractName": "AlchemyGame",
  "sourceName": "contracts/AlchemyGame.sol",
  "abi": [
    {
      "inputs": [
        {
          "internalType": "string",
          "name": "_uri",
          "type": "string"
        }
      ],
      "stateMutability": "nonpayable",
      "type": "constructor"
    },
    {
      "inputs": [
        {
          "internalType": "address",
          "name": "sender",
          "type": "address"
        },
        {
          "internalType": "uint256",
          "name": "balance",
          "type": "uint256"
        },
        {
          "internalType": "uint256",
          "name": "needed",
          "type": "uint256"
        },
        {
          "internalType": "uint256",
          "name": "tokenId",
          "type": "uint256"
        }
      ],
      "name": "ERC1155InsufficientBalance",
      "type": "error"
    },
    {
      "inputs": [
        {
          "internalType": "address",
          "name": "approver",
          "type": "address"
        }
      ],
      "name": "ERC1155InvalidApprover",
      "type": "error"
    },
    {
      "inputs": [
        {
          "internalType": "uint256",
          "name": "idsLength",
          "type": "uint256"
        },
        {
          "internalType": "uint256",
          "name": "valuesLength",
          "type": "uint256"
        }
      ],
      "name": "ERC1155InvalidArrayLength",
      "type": "error"
    },
    {
      "inputs": [
        {
          "internalType": "address",
          "name": "operator",
          "type": "address"
        }
      ],
      "name": "ERC1155InvalidOperator",
      "type": "error"
    },
    {
      "inputs": [
        {
          "internalType": "address",
          "name": "receiver",
          "type": "address"
        }
      ],
      "name": "ERC1155InvalidReceiver",
      "type": "error"
    },
    {
      "inputs": [
        {
          "internalType": "address",
          "name": "sender",
          "type": "address"
        }
      ],
      "name": "ERC1155InvalidSender",
      "type": "error"
    },
    {
      "inputs": [
        {
          "internalType": "address",
          "name": "operator",
          "type": "address"
        },
        {
          "internalType": "address",
          "name": "owner",
          "type": "address"
        }
      ],
      "name": "ERC1155MissingApprovalForAll",
      "type": "error"
    },
    {
      "inputs": [
        {
          "internalType": "address",
          "name": "owner",
          "type": "address"
        }
      ],
      "name": "OwnableInvalidOwner",
      "type": "error"
    },
    {
      "inputs": [
        {
          "internalType": "address",
          "name": "account",
          "type": "address"
        }
      ],
      "name": "OwnableUnauthorizedAccount",
      "type": "error"
    },
    {
      "anonymous": false,
      "inputs": [
        {
          "indexed": true,
          "internalType": "address",
          "name": "account",
          "type": "address"
        },
        {
          "indexed": true,
          "internalType": "address",
          "name": "operator",
          "type": "address"
        },
        {
          "indexed": false,
          "internalType": "bool",
          "name": "approved",
          "type": "bool"
        }
      ],
      "name": "ApprovalForAll",
      "type": "event"
    },
    {
      "anonymous": false,
      "inputs": [
        {
          "indexed": true,
          "internalType": "address",
          "name": "player",
          "type": "address"
        },
        {
          "indexed": false,
          "internalType": "uint256",
          "name": "elementId",
          "type": "uint256"
        }
      ],
      "name": "ElementDiscovered",
      "type": "event"
    },
    {
      "anonymous": false,
      "inputs": [
        {
          "indexed": true,
          "internalType": "address",
          "name": "previousOwner",
          "type": "address"
        },
        {
          "indexed": true,
          "internalType": "address",
          "name": "newOwner",
          "type": "address"
        }
      ],
      "name": "OwnershipTransferred",
      "type": "event"
    },
    {
      "anonymous": false,
      "inputs": [
        {
          "indexed": true,
          "internalType": "address",
          "name": "operator",
          "type": "address"
        },
        {
          "indexed": true,
          "internalType": "address",
          "name": "from",
          "type": "address"
        },
        {
          "indexed": true,
          "internalType": "address",
          "name": "to",
          "type": "address"
        },
        {
          "indexed": false,
          "internalType": "uint256[]",
          "name": "ids",
          "type": "uint256[]"
        },
        {
          "indexed": false,
          "internalType": "uint256[]",
          "name": "values",
          "type": "uint256[]"
        }
      ],
      "name": "TransferBatch",
      "type": "event"
    },
    {
      "anonymous": false,
      "inputs": [
        {
          "indexed": true,
          "internalType": "address",
          "name": "operator",
          "type": "address"
        },
        {
          "indexed": true,
          "internalType": "address",
          "name": "from",
          "type": "address"
        },
        {
          "indexed": true,
          "internalType": "address",
          "name": "to",
          "type": "address"
        },
        {
          "indexed": false,
          "internalType": "uint256",
          "name": "id",
          "type": "uint256"
        },
        {
          "indexed": false,
          "internalType": "uint256",
          "name": "value",
          "type": "uint256"
        }
      ],
      "name": "TransferSingle",
      "type": "event"
    },
    {
      "anonymous": false,
      "inputs": [
        {
          "indexed": false,
          "internalType": "string",
          "name": "value",
          "type": "string"
        },
        {
          "indexed": true,
          "internalType": "uint256",
          "name": "id",
          "type": "uint256"
        }
      ],
      "name": "URI",
      "type": "event"
    },
    {
      "inputs": [
        {
          "internalType": "uint256",
          "name": "element1",
          "type": "uint256"
        },
        {
          "internalType": "uint256",
          "name": "element2",
          "type": "uint256"
        },
        {
          "internalType": "uint256",
          "name": "result",
          "type": "uint256"
        }
      ],
      "name": "addCombination",
      "outputs": [],
      "stateMutability": "nonpayable",
      "type": "function"
    },
    {
      "inputs": [
        {
          "internalType": "uint256",
          "name": "id",
          "type": "uint256"
        },
        {
          "internalType": "uint256",
          "name": "rarity",
          "type": "uint256"
        }
      ],
      "name": "addElement",
      "outputs": [],
      "stateMutability": "nonpayable",
      "type": "function"
    },
    {
      "inputs": [
        {
          "internalType": "address",
          "name": "account",
          "type": "address"
        },
        {
          "internalType": "uint256",
          "name": "id",
          "type": "uint256"
        }
      ],
      "name": "balanceOf",
      "outputs": [
        {
          "internalType": "uint256",
          "name": "",
          "type": "uint256"
        }
      ],
      "stateMutability": "view",
      "type": "function"
    },
    {
      "inputs": [
        {
          "internalType": "address[]",
          "name": "accounts",
          "type": "address[]"
        },
        {
          "internalType": "uint256[]",
          "name": "ids",
          "type": "uint256[]"
        }
      ],
      "name": "balanceOfBatch",
      "outputs": [
        {
          "internalType": "uint256[]",
          "name": "",
          "type": "uint256[]"
        }
      ],
      "stateMutability": "view",
      "type": "function"
    },
    {
      "inputs": [],
      "name": "baseFee",
      "outputs": [
        {
          "internalType": "uint256",
          "name": "",
          "type": "uint256"
        }
      ],
      "stateMutability": "view",
      "type": "function"
    },
    {
      "inputs": [
        {
          "internalType": "uint256",
          "name": "rarity",
          "type": "uint256"
        }
      ],
      "name": "calculateFee",
      "outputs": [
        {
          "internalType": "uint256",
          "name": "",
          "type": "uint256"
        }
      ],
      "stateMutability": "view",
      "type": "function"
    },
    {
      "inputs": [
        {
          "internalType": "bytes32[]",
          "name": "_merkleProof",
          "type": "bytes32[]"
        }
      ],
      "name": "claimAirdrop",
      "outputs": [],
      "stateMutability": "nonpayable",
      "type": "function"
    },
    {
      "inputs": [
        {
          "internalType": "uint256",
          "name": "",
          "type": "uint256"
        },
        {
          "internalType": "uint256",
          "name": "",
          "type": "uint256"
        }
      ],
      "name": "combinations",
      "outputs": [
        {
          "internalType": "uint256",
          "name": "",
          "type": "uint256"
        }
      ],
      "stateMutability": "view",
      "type": "function"
    },
    {
      "inputs": [
        {
          "internalType": "uint256",
          "name": "id",
          "type": "uint256"
        }
      ],
      "name": "elementDetails",
      "outputs": [
        {
          "internalType": "uint256",
          "name": "",
          "type": "uint256"
        },
        {
          "internalType": "uint256",
          "name": "",
          "type": "uint256"
        },
        {
          "internalType": "bool",
          "name": "",
          "type": "bool"
        }
      ],
      "stateMutability": "view",
      "type": "function"
    },
    {
      "inputs": [
        {
          "internalType": "uint256",
          "name": "",
          "type": "uint256"
        }
      ],
      "name": "elements",
      "outputs": [
        {
          "internalType": "uint256",
          "name": "id",
          "type": "uint256"
        },
        {
          "internalType": "uint256",
          "name": "rarity",
          "type": "uint256"
        },
        {
          "internalType": "bool",
          "name": "discovered",
          "type": "bool"
        }
      ],
      "stateMutability": "view",
      "type": "function"
    },
    {
      "inputs": [],
      "name": "fundAddress",
      "outputs": [
        {
          "internalType": "address",
          "name": "",
          "type": "address"
        }
      ],
      "stateMutability": "view",
      "type": "function"
    },
    {
      "inputs": [
        {
          "internalType": "address",
          "name": "",
          "type": "address"
        }
      ],
      "name": "hasClaimedAirdrop",
      "outputs": [
        {
          "internalType": "bool",
          "name": "",
          "type": "bool"
        }
      ],
      "stateMutability": "view",
      "type": "function"
    },
    {
      "inputs": [
        {
          "internalType": "address",
          "name": "account",
          "type": "address"
        },
        {
          "internalType": "address",
          "name": "operator",
          "type": "address"
        }
      ],
      "name": "isApprovedForAll",
      "outputs": [
        {
          "internalType": "bool",
          "name": "",
          "type": "bool"
        }
      ],
      "stateMutability": "view",
      "type": "function"
    },
    {
      "inputs": [],
      "name": "merkleRoot",
      "outputs": [
        {
          "internalType": "bytes32",
          "name": "",
          "type": "bytes32"
        }
      ],
      "stateMutability": "view",
      "type": "function"
    },
    {
      "inputs": [
        {
          "internalType": "uint256",
          "name": "element1",
          "type": "uint256"
        },
        {
          "internalType": "uint256",
          "name": "element2",
          "type": "uint256"
        }
      ],
      "name": "mint",
      "outputs": [],
      "stateMutability": "payable",
      "type": "function"
    },
    {
      "inputs": [],
      "name": "mintStandardElements",
      "outputs": [],
      "stateMutability": "payable",
      "type": "function"
    },
    {
      "inputs": [],
      "name": "owner",
      "outputs": [
        {
          "internalType": "address",
          "name": "",
          "type": "address"
        }
      ],
      "stateMutability": "view",
      "type": "function"
    },
    {
      "inputs": [],
      "name": "renounceOwnership",
      "outputs": [],
      "stateMutability": "nonpayable",
      "type": "function"
    },
    {
      "inputs": [
        {
          "internalType": "address",
          "name": "from",
          "type": "address"
        },
        {
          "internalType": "address",
          "name": "to",
          "type": "address"
        },
        {
          "internalType": "uint256[]",
          "name": "ids",
          "type": "uint256[]"
        },
        {
          "internalType": "uint256[]",
          "name": "values",
          "type": "uint256[]"
        },
        {
          "internalType": "bytes",
          "name": "data",
          "type": "bytes"
        }
      ],
      "name": "safeBatchTransferFrom",
      "outputs": [],
      "stateMutability": "nonpayable",
      "type": "function"
    },
    {
      "inputs": [
        {
          "internalType": "address",
          "name": "from",
          "type": "address"
        },
        {
          "internalType": "address",
          "name": "to",
          "type": "address"
        },
        {
          "internalType": "uint256",
          "name": "id",
          "type": "uint256"
        },
        {
          "internalType": "uint256",
          "name": "value",
          "type": "uint256"
        },
        {
          "internalType": "bytes",
          "name": "data",
          "type": "bytes"
        }
      ],
      "name": "safeTransferFrom",
      "outputs": [],
      "stateMutability": "nonpayable",
      "type": "function"
    },
    {
      "inputs": [
        {
          "internalType": "address",
          "name": "operator",
          "type": "address"
        },
        {
          "internalType": "bool",
          "name": "approved",
          "type": "bool"
        }
      ],
      "name": "setApprovalForAll",
      "outputs": [],
      "stateMutability": "nonpayable",
      "type": "function"
    },
    {
      "inputs": [
        {
          "internalType": "uint256",
          "name": "_baseFee",
          "type": "uint256"
        }
      ],
      "name": "setBaseFee",
      "outputs": [],
      "stateMutability": "nonpayable",
      "type": "function"
    },
    {
      "inputs": [
        {
          "internalType": "address",
          "name": "_account",
          "type": "address"
        }
      ],
      "name": "setFundAddress",
      "outputs": [],
      "stateMutability": "nonpayable",
      "type": "function"
    },
    {
      "inputs": [
        {
          "internalType": "bytes32",
          "name": "_merkleRoot",
          "type": "bytes32"
        }
      ],
      "name": "setMerkleRoot",
      "outputs": [],
      "stateMutability": "nonpayable",
      "type": "function"
    },
    {
      "inputs": [
        {
          "internalType": "bytes4",
          "name": "interfaceId",
          "type": "bytes4"
        }
      ],
      "name": "supportsInterface",
      "outputs": [
        {
          "internalType": "bool",
          "name": "",
          "type": "bool"
        }
      ],
      "stateMutability": "view",
      "type": "function"
    },
    {
      "inputs": [],
      "name": "totalNFT",
      "outputs": [
        {
          "internalType": "uint256",
          "name": "",
          "type": "uint256"
        }
      ],
      "stateMutability": "view",
      "type": "function"
    },
    {
      "inputs": [],
      "name": "totalSupply",
      "outputs": [
        {
          "internalType": "uint256",
          "name": "",
          "type": "uint256"
        }
      ],
      "stateMutability": "view",
      "type": "function"
    },
    {
      "inputs": [
        {
          "internalType": "address",
          "name": "newOwner",
          "type": "address"
        }
      ],
      "name": "transferOwnership",
      "outputs": [],
      "stateMutability": "nonpayable",
      "type": "function"
    },
    {
      "inputs": [
        {
          "internalType": "uint256",
          "name": "tokenId",
          "type": "uint256"
        }
      ],
      "name": "uri",
      "outputs": [
        {
          "internalType": "string",
          "name": "",
          "type": "string"
        }
      ],
      "stateMutability": "view",
      "type": "function"
    }
  ],
  "bytecode": "0x60806040523480156200001157600080fd5b5060405162004942380380620049428339818101604052810190620000379190620007bf565b33816200004a81620000f760201b60201c565b50600073ffffffffffffffffffffffffffffffffffffffff168173ffffffffffffffffffffffffffffffffffffffff1603620000c05760006040517f1e4fbdf7000000000000000000000000000000000000000000000000000000008152600401620000b7919062000855565b60405180910390fd5b620000d1816200010c60201b60201c565b506601c6bf52634000600581905550620000f0620001d260201b60201c565b5062000ba4565b806002908162000108919062000abd565b5050565b6000600360009054906101000a900473ffffffffffffffffffffffffffffffffffffffff16905081600360006101000a81548173ffffffffffffffffffffffffffffffffffffffff021916908373ffffffffffffffffffffffffffffffffffffffff1602179055508173ffffffffffffffffffffffffffffffffffffffff168173ffffffffffffffffffffffffffffffffffffffff167f8be0079c531659141344cd1fd0a4f28419497f9722a3daafe3b4186f6b6457e060405160405180910390a35050565b620001e6600060016200056960201b60201c565b620001f96001806200056960201b60201c565b6200020d600260016200056960201b60201c565b62000221600360016200056960201b60201c565b62000235600460026200056960201b60201c565b62000249600560026200056960201b60201c565b6200025d600660026200056960201b60201c565b62000271600760026200056960201b60201c565b62000285600860026200056960201b60201c565b62000299600960036200056960201b60201c565b620002ad600a60036200056960201b60201c565b620002c1600b60036200056960201b60201c565b620002d5600c60036200056960201b60201c565b620002e9600d60036200056960201b60201c565b620002fd600e60046200056960201b60201c565b62000311600f60046200056960201b60201c565b62000325601060046200056960201b60201c565b62000339601160056200056960201b60201c565b6200034d601260056200056960201b60201c565b62000361601360066200056960201b60201c565b62000375601460076200056960201b60201c565b62000389601560086200056960201b60201c565b6200039d601660096200056960201b60201c565b620003b16017600a6200056960201b60201c565b620003c7600060016007620005d560201b60201c565b620003dd600060026004620005d560201b60201c565b620003f3600060036008620005d560201b60201c565b62000409600160026005620005d560201b60201c565b6200041f6001600a600b620005d560201b60201c565b62000435600260036006620005d560201b60201c565b6200044b6002600a600c620005d560201b60201c565b620004616002600b600d620005d560201b60201c565b62000477600360076009620005d560201b60201c565b6200048d60066001600a620005d560201b60201c565b620004a360086009600e620005d560201b60201c565b620004b8600d80600f620005d560201b60201c565b620004ce6005600c6010620005d560201b60201c565b620004e4600560086011620005d560201b60201c565b620004fa601160036012620005d560201b60201c565b62000510600f60126013620005d560201b60201c565b62000526601060136014620005d560201b60201c565b6200053b6014806015620005d560201b60201c565b62000551601460156016620005d560201b60201c565b62000567601660136017620005d560201b60201c565b565b60405180606001604052808381526020018281526020016000151581525060086000848152602001908152602001600020600082015181600001556020820151816001015560408201518160020160006101000a81548160ff0219169083151502179055509050505050565b80600960008581526020019081526020016000206000848152602001908152602001600020819055508060096000848152602001908152602001600020600085815260200190815260200160002081905550505050565b6000604051905090565b600080fd5b600080fd5b600080fd5b600080fd5b6000601f19601f8301169050919050565b7f4e487b7100000000000000000000000000000000000000000000000000000000600052604160045260246000fd5b62000695826200064a565b810181811067ffffffffffffffff82111715620006b757620006b66200065b565b5b80604052505050565b6000620006cc6200062c565b9050620006da82826200068a565b919050565b600067ffffffffffffffff821115620006fd57620006fc6200065b565b5b62000708826200064a565b9050602081019050919050565b60005b838110156200073557808201518184015260208101905062000718565b60008484015250505050565b6000620007586200075284620006df565b620006c0565b90508281526020810184848401111562000777576200077662000645565b5b6200078484828562000715565b509392505050565b600082601f830112620007a457620007a362000640565b5b8151620007b684826020860162000741565b91505092915050565b600060208284031215620007d857620007d762000636565b5b600082015167ffffffffffffffff811115620007f957620007f86200063b565b5b62000807848285016200078c565b91505092915050565b600073ffffffffffffffffffffffffffffffffffffffff82169050919050565b60006200083d8262000810565b9050919050565b6200084f8162000830565b82525050565b60006020820190506200086c600083018462000844565b92915050565b600081519050919050565b7f4e487b7100000000000000000000000000000000000000000000000000000000600052602260045260246000fd5b60006002820490506001821680620008c557607f821691505b602082108103620008db57620008da6200087d565b5b50919050565b60008190508160005260206000209050919050565b60006020601f8301049050919050565b600082821b905092915050565b600060088302620009457fffffffffffffffffffffffffffffffffffffffffffffffffffffffffffffffff8262000906565b62000951868362000906565b95508019841693508086168417925050509392505050565b6000819050919050565b6000819050919050565b60006200099e62000998620009928462000969565b62000973565b62000969565b9050919050565b6000819050919050565b620009ba836200097d565b620009d2620009c982620009a5565b84845462000913565b825550505050565b600090565b620009e9620009da565b620009f6818484620009af565b505050565b5b8181101562000a1e5762000a12600082620009df565b600181019050620009fc565b5050565b601f82111562000a6d5762000a3781620008e1565b62000a4284620008f6565b8101602085101562000a52578190505b62000a6a62000a6185620008f6565b830182620009fb565b50505b505050565b600082821c905092915050565b600062000a926000198460080262000a72565b1980831691505092915050565b600062000aad838362000a7f565b9150826002028217905092915050565b62000ac88262000872565b67ffffffffffffffff81111562000ae45762000ae36200065b565b5b62000af08254620008ac565b62000afd82828562000a22565b600060209050601f83116001811462000b35576000841562000b20578287015190505b62000b2c858262000a9f565b86555062000b9c565b601f19841662000b4586620008e1565b60005b8281101562000b6f5784890151825560018201915060208501945060208101905062000b48565b8683101562000b8f578489015162000b8b601f89168262000a7f565b8355505b6001600288020188555050505b505050505050565b613d8e8062000bb46000396000f3fe6080604052600436106101c05760003560e01c80636ef25c3a116100f757806399a5d74711610095578063e985e9c511610064578063e985e9c514610638578063f242432a14610675578063f2fde38b1461069e578063f4cdda36146106c7576101c0565b806399a5d74714610568578063a22cb465146105a5578063e0d64b37146105ce578063e82bef291461060d576101c0565b80637cb64759116100d15780637cb64759146104c257806385dc3004146104eb5780638da5cb5b14610514578063958c40651461053f576101c0565b80636ef25c3a14610457578063715018a61461048257806372d673f514610499576101c0565b806318160ddd116101645780632eb4a7ab1161013e5780632eb4a7ab1461039d57806346860698146103c85780634e1273f4146103f157806353223ab01461042e576101c0565b806318160ddd1461032d5780631b2ef1ca146103585780632eb2c2d614610374576101c0565b8063052b3d77116101a0578063052b3d771461026a57806307a6bcbc146102a75780630e89341c146102e65780631167f45214610323576101c0565b8062456379146101c5578062fdd58e146101f057806301ffc9a71461022d575b600080fd5b3480156101d157600080fd5b506101da610704565b6040516101e7919061286f565b60405180910390f35b3480156101fc57600080fd5b5061021760048036038101906102129190612928565b61070a565b604051610224919061286f565b60405180910390f35b34801561023957600080fd5b50610254600480360381019061024f91906129c0565b610764565b6040516102619190612a08565b60405180910390f35b34801561027657600080fd5b50610291600480360381019061028c9190612a23565b610846565b60405161029e919061286f565b60405180910390f35b3480156102b357600080fd5b506102ce60048036038101906102c99190612a63565b61086b565b6040516102dd93929190612a90565b60405180910390f35b3480156102f257600080fd5b5061030d60048036038101906103089190612a63565b6108dd565b60405161031a9190612b57565b60405180910390f35b61032b610918565b005b34801561033957600080fd5b50610342610bfa565b60405161034f919061286f565b60405180910390f35b610372600480360381019061036d9190612a23565b610c04565b005b34801561038057600080fd5b5061039b60048036038101906103969190612d76565b610eff565b005b3480156103a957600080fd5b506103b2610fa7565b6040516103bf9190612e5e565b60405180910390f35b3480156103d457600080fd5b506103ef60048036038101906103ea9190612a63565b610fad565b005b3480156103fd57600080fd5b5061041860048036038101906104139190612f3c565b610fbf565b6040516104259190613072565b60405180910390f35b34801561043a57600080fd5b50610455600480360381019061045091906130ef565b6110ce565b005b34801561046357600080fd5b5061046c6112fc565b604051610479919061286f565b60405180910390f35b34801561048e57600080fd5b50610497611302565b005b3480156104a557600080fd5b506104c060048036038101906104bb919061313c565b611316565b005b3480156104ce57600080fd5b506104e960048036038101906104e491906131bb565b61132e565b005b3480156104f757600080fd5b50610512600480360381019061050d91906131e8565b611340565b005b34801561052057600080fd5b5061052961138c565b6040516105369190613224565b60405180910390f35b34801561054b57600080fd5b5061056660048036038101906105619190612a23565b6113b6565b005b34801561057457600080fd5b5061058f600480360381019061058a9190612a63565b6113cc565b60405161059c919061286f565b60405180910390f35b3480156105b157600080fd5b506105cc60048036038101906105c7919061326b565b6113ef565b005b3480156105da57600080fd5b506105f560048036038101906105f09190612a63565b611405565b60405161060493929190612a90565b60405180910390f35b34801561061957600080fd5b5061062261143c565b60405161062f9190613224565b60405180910390f35b34801561064457600080fd5b5061065f600480360381019061065a91906132ab565b611462565b60405161066c9190612a08565b60405180910390f35b34801561068157600080fd5b5061069c600480360381019061069791906132eb565b6114f6565b005b3480156106aa57600080fd5b506106c560048036038101906106c091906131e8565b61159e565b005b3480156106d357600080fd5b506106ee60048036038101906106e991906131e8565b611624565b6040516106fb9190612a08565b60405180910390f35b60045481565b600080600083815260200190815260200160002060008473ffffffffffffffffffffffffffffffffffffffff1673ffffffffffffffffffffffffffffffffffffffff16815260200190815260200160002054905092915050565b60007fd9b67a26000000000000000000000000000000000000000000000000000000007bffffffffffffffffffffffffffffffffffffffffffffffffffffffff1916827bffffffffffffffffffffffffffffffffffffffffffffffffffffffff1916148061082f57507f0e89341c000000000000000000000000000000000000000000000000000000007bffffffffffffffffffffffffffffffffffffffffffffffffffffffff1916827bffffffffffffffffffffffffffffffffffffffffffffffffffffffff1916145b8061083f575061083e82611644565b5b9050919050565b6009602052816000526040600020602052806000526040600020600091509150505481565b6000806000806008600086815260200190815260200160002060405180606001604052908160008201548152602001600182015481526020016002820160009054906101000a900460ff1615151515815250509050806000015181602001518260400151935093509350509193909250565b60606108e8826116ae565b6108f183611742565b60405160200161090292919061340a565b6040516020818303038152906040529050919050565b600061092533600061070a565b14610965576040517f08c379a000000000000000000000000000000000000000000000000000000000815260040161095c90613485565b60405180910390fd5b600061097233600161070a565b146109b2576040517f08c379a00000000000000000000000000000000000000000000000000000000081526004016109a9906134f1565b60405180910390fd5b60006109bf33600261070a565b146109ff576040517f08c379a00000000000000000000000000000000000000000000000000000000081526004016109f69061355d565b60405180910390fd5b6000610a0c33600361070a565b14610a4c576040517f08c379a0000000000000000000000000000000000000000000000000000000008152600401610a43906135c9565b60405180910390fd5b6004600554610a5b9190613618565b341015610a9d576040517f08c379a0000000000000000000000000000000000000000000000000000000008152600401610a94906136a6565b60405180910390fd5b6000600660009054906101000a900473ffffffffffffffffffffffffffffffffffffffff1673ffffffffffffffffffffffffffffffffffffffff1634604051610ae5906136f7565b60006040518083038185875af1925050503d8060008114610b22576040519150601f19603f3d011682016040523d82523d6000602084013e610b27565b606091505b5050905080610b6b576040517f08c379a0000000000000000000000000000000000000000000000000000000008152600401610b6290613758565b60405180910390fd5b610b88336000600160405180602001604052806000815250611810565b610ba43360018060405180602001604052806000815250611810565b610bc1336002600160405180602001604052806000815250611810565b610bde336003600160405180602001604052806000815250611810565b6004806000828254610bf09190613778565b9250508190555050565b6000600454905090565b6000610c10338461070a565b11610c50576040517f08c379a0000000000000000000000000000000000000000000000000000000008152600401610c47906137f8565b60405180910390fd5b6000610c5c338361070a565b11610c9c576040517f08c379a0000000000000000000000000000000000000000000000000000000008152600401610c9390613864565b60405180910390fd5b600060096000848152602001908152602001600020600083815260200190815260200160002054905060008103610d08576040517f08c379a0000000000000000000000000000000000000000000000000000000008152600401610cff906138d0565b60405180910390fd5b60006008600083815260200190815260200160002090506000610d2e82600101546113cc565b905080341015610d73576040517f08c379a0000000000000000000000000000000000000000000000000000000008152600401610d6a906136a6565b60405180910390fd5b6000600660009054906101000a900473ffffffffffffffffffffffffffffffffffffffff1673ffffffffffffffffffffffffffffffffffffffff1634604051610dbb906136f7565b60006040518083038185875af1925050503d8060008114610df8576040519150601f19603f3d011682016040523d82523d6000602084013e610dfd565b606091505b5050905080610e41576040517f08c379a0000000000000000000000000000000000000000000000000000000008152600401610e3890613758565b60405180910390fd5b610e5d3385600160405180602001604052806000815250611810565b60046000815480929190610e70906138f0565b91905055508260020160009054906101000a900460ff16610ef75760018360020160006101000a81548160ff0219169083151502179055503373ffffffffffffffffffffffffffffffffffffffff167faa6f58332fe94d1c4947db2c96d45b3a53dc04b7cde95e1e2ae9bb003f8a982585604051610eee919061286f565b60405180910390a25b505050505050565b6000610f096118a9565b90508073ffffffffffffffffffffffffffffffffffffffff168673ffffffffffffffffffffffffffffffffffffffff1614158015610f4e5750610f4c8682611462565b155b15610f925780866040517fe237d922000000000000000000000000000000000000000000000000000000008152600401610f89929190613938565b60405180910390fd5b610f9f86868686866118b1565b505050505050565b60075481565b610fb56119a9565b8060058190555050565b6060815183511461100b57815183516040517f5b059991000000000000000000000000000000000000000000000000000000008152600401611002929190613961565b60405180910390fd5b6000835167ffffffffffffffff81111561102857611027612b7e565b5b6040519080825280602002602001820160405280156110565781602001602082028036833780820191505090505b50905060005b84518110156110c35761109361107b8287611a3090919063ffffffff16565b61108e8387611a4490919063ffffffff16565b61070a565b8282815181106110a6576110a561398a565b5b602002602001018181525050806110bc906138f0565b905061105c565b508091505092915050565b600a60003373ffffffffffffffffffffffffffffffffffffffff1673ffffffffffffffffffffffffffffffffffffffff16815260200190815260200160002060009054906101000a900460ff161561115b576040517f08c379a000000000000000000000000000000000000000000000000000000000815260040161115290613a05565b60405180910390fd5b60003360405160200161116e9190613a6d565b6040516020818303038152906040528051906020012090506111d4838380806020026020016040519081016040528093929190818152602001838360200280828437600081840152601f19601f8201169050808301925050505050505060075483611a58565b611213576040517f08c379a000000000000000000000000000000000000000000000000000000000815260040161120a90613ad4565b60405180910390fd5b6001600a60003373ffffffffffffffffffffffffffffffffffffffff1673ffffffffffffffffffffffffffffffffffffffff16815260200190815260200160002060006101000a81548160ff021916908315150217905550611288336000600160405180602001604052806000815250611810565b6112a43360018060405180602001604052806000815250611810565b6112c1336002600160405180602001604052806000815250611810565b6112de336003600160405180602001604052806000815250611810565b60048060008282546112f09190613778565b92505081905550505050565b60055481565b61130a6119a9565b6113146000611a6f565b565b61131e6119a9565b611329838383611b35565b505050565b6113366119a9565b8060078190555050565b6113486119a9565b80600660006101000a81548173ffffffffffffffffffffffffffffffffffffffff021916908373ffffffffffffffffffffffffffffffffffffffff16021790555050565b6000600360009054906101000a900473ffffffffffffffffffffffffffffffffffffffff16905090565b6113be6119a9565b6113c88282611b8c565b5050565b60006001826113db9190613778565b6005546113e89190613618565b9050919050565b6114016113fa6118a9565b8383611bf8565b5050565b60086020528060005260406000206000915090508060000154908060010154908060020160009054906101000a900460ff16905083565b600660009054906101000a900473ffffffffffffffffffffffffffffffffffffffff1681565b6000600160008473ffffffffffffffffffffffffffffffffffffffff1673ffffffffffffffffffffffffffffffffffffffff16815260200190815260200160002060008373ffffffffffffffffffffffffffffffffffffffff1673ffffffffffffffffffffffffffffffffffffffff16815260200190815260200160002060009054906101000a900460ff16905092915050565b60006115006118a9565b90508073ffffffffffffffffffffffffffffffffffffffff168673ffffffffffffffffffffffffffffffffffffffff161415801561154557506115438682611462565b155b156115895780866040517fe237d922000000000000000000000000000000000000000000000000000000008152600401611580929190613938565b60405180910390fd5b6115968686868686611d68565b505050505050565b6115a66119a9565b600073ffffffffffffffffffffffffffffffffffffffff168173ffffffffffffffffffffffffffffffffffffffff16036116185760006040517f1e4fbdf700000000000000000000000000000000000000000000000000000000815260040161160f9190613224565b60405180910390fd5b61162181611a6f565b50565b600a6020528060005260406000206000915054906101000a900460ff1681565b60007f01ffc9a7000000000000000000000000000000000000000000000000000000007bffffffffffffffffffffffffffffffffffffffffffffffffffffffff1916827bffffffffffffffffffffffffffffffffffffffffffffffffffffffff1916149050919050565b6060600280546116bd90613b23565b80601f01602080910402602001604051908101604052809291908181526020018280546116e990613b23565b80156117365780601f1061170b57610100808354040283529160200191611736565b820191906000526020600020905b81548152906001019060200180831161171957829003601f168201915b50505050509050919050565b60606000600161175184611e73565b01905060008167ffffffffffffffff8111156117705761176f612b7e565b5b6040519080825280601f01601f1916602001820160405280156117a25781602001600182028036833780820191505090505b509050600082602001820190505b600115611805578080600190039150507f3031323334353637383961626364656600000000000000000000000000000000600a86061a8153600a85816117f9576117f8613b54565b5b049450600085036117b0575b819350505050919050565b600073ffffffffffffffffffffffffffffffffffffffff168473ffffffffffffffffffffffffffffffffffffffff16036118825760006040517f57f447ce0000000000000000000000000000000000000000000000000000000081526004016118799190613224565b60405180910390fd5b60008061188f8585611fc6565b915091506118a1600087848487611ff6565b505050505050565b600033905090565b600073ffffffffffffffffffffffffffffffffffffffff168473ffffffffffffffffffffffffffffffffffffffff16036119235760006040517f57f447ce00000000000000000000000000000000000000000000000000000000815260040161191a9190613224565b60405180910390fd5b600073ffffffffffffffffffffffffffffffffffffffff168573ffffffffffffffffffffffffffffffffffffffff16036119955760006040517f01a8351400000000000000000000000000000000000000000000000000000000815260040161198c9190613224565b60405180910390fd5b6119a28585858585611ff6565b5050505050565b6119b16118a9565b73ffffffffffffffffffffffffffffffffffffffff166119cf61138c565b73ffffffffffffffffffffffffffffffffffffffff1614611a2e576119f26118a9565b6040517f118cdaa7000000000000000000000000000000000000000000000000000000008152600401611a259190613224565b60405180910390fd5b565b600060208202602084010151905092915050565b600060208202602084010151905092915050565b600082611a6585846120a8565b1490509392505050565b6000600360009054906101000a900473ffffffffffffffffffffffffffffffffffffffff16905081600360006101000a81548173ffffffffffffffffffffffffffffffffffffffff021916908373ffffffffffffffffffffffffffffffffffffffff1602179055508173ffffffffffffffffffffffffffffffffffffffff168173ffffffffffffffffffffffffffffffffffffffff167f8be0079c531659141344cd1fd0a4f28419497f9722a3daafe3b4186f6b6457e060405160405180910390a35050565b80600960008581526020019081526020016000206000848152602001908152602001600020819055508060096000848152602001908152602001600020600085815260200190815260200160002081905550505050565b60405180606001604052808381526020018281526020016000151581525060086000848152602001908152602001600020600082015181600001556020820151816001015560408201518160020160006101000a81548160ff0219169083151502179055509050505050565b600073ffffffffffffffffffffffffffffffffffffffff168273ffffffffffffffffffffffffffffffffffffffff1603611c6a5760006040517fced3e100000000000000000000000000000000000000000000000000000000008152600401611c619190613224565b60405180910390fd5b80600160008573ffffffffffffffffffffffffffffffffffffffff1673ffffffffffffffffffffffffffffffffffffffff16815260200190815260200160002060008473ffffffffffffffffffffffffffffffffffffffff1673ffffffffffffffffffffffffffffffffffffffff16815260200190815260200160002060006101000a81548160ff0219169083151502179055508173ffffffffffffffffffffffffffffffffffffffff168373ffffffffffffffffffffffffffffffffffffffff167f17307eab39ab6107e8899845ad3d59bd9653f200f220920489ca2b5937696c3183604051611d5b9190612a08565b60405180910390a3505050565b600073ffffffffffffffffffffffffffffffffffffffff168473ffffffffffffffffffffffffffffffffffffffff1603611dda5760006040517f57f447ce000000000000000000000000000000000000000000000000000000008152600401611dd19190613224565b60405180910390fd5b600073ffffffffffffffffffffffffffffffffffffffff168573ffffffffffffffffffffffffffffffffffffffff1603611e4c5760006040517f01a83514000000000000000000000000000000000000000000000000000000008152600401611e439190613224565b60405180910390fd5b600080611e598585611fc6565b91509150611e6a8787848487611ff6565b50505050505050565b600080600090507a184f03e93ff9f4daa797ed6e38ed64bf6a1f0100000000000000008310611ed1577a184f03e93ff9f4daa797ed6e38ed64bf6a1f0100000000000000008381611ec757611ec6613b54565b5b0492506040810190505b6d04ee2d6d415b85acef81000000008310611f0e576d04ee2d6d415b85acef81000000008381611f0457611f03613b54565b5b0492506020810190505b662386f26fc100008310611f3d57662386f26fc100008381611f3357611f32613b54565b5b0492506010810190505b6305f5e1008310611f66576305f5e1008381611f5c57611f5b613b54565b5b0492506008810190505b6127108310611f8b576127108381611f8157611f80613b54565b5b0492506004810190505b60648310611fae5760648381611fa457611fa3613b54565b5b0492506002810190505b600a8310611fbd576001810190505b80915050919050565b60608060405191506001825283602083015260408201905060018152826020820152604081016040529250929050565b612002858585856120fe565b600073ffffffffffffffffffffffffffffffffffffffff168473ffffffffffffffffffffffffffffffffffffffff16146120a15760006120406118a9565b90506001845103612090576000612061600086611a4490919063ffffffff16565b90506000612079600086611a4490919063ffffffff16565b90506120898389898585896124ac565b505061209f565b61209e818787878787612660565b5b505b5050505050565b60008082905060005b84518110156120f3576120de828683815181106120d1576120d061398a565b5b6020026020010151612814565b915080806120eb906138f0565b9150506120b1565b508091505092915050565b805182511461214857815181516040517f5b05999100000000000000000000000000000000000000000000000000000000815260040161213f929190613961565b60405180910390fd5b60006121526118a9565b905060005b83518110156123675760006121758286611a4490919063ffffffff16565b9050600061218c8386611a4490919063ffffffff16565b9050600073ffffffffffffffffffffffffffffffffffffffff168873ffffffffffffffffffffffffffffffffffffffff16146122b957600080600084815260200190815260200160002060008a73ffffffffffffffffffffffffffffffffffffffff1673ffffffffffffffffffffffffffffffffffffffff1681526020019081526020016000205490508181101561226157888183856040517f03dee4c50000000000000000000000000000000000000000000000000000000081526004016122589493929190613b83565b60405180910390fd5b81810360008085815260200190815260200160002060008b73ffffffffffffffffffffffffffffffffffffffff1673ffffffffffffffffffffffffffffffffffffffff16815260200190815260200160002081905550505b600073ffffffffffffffffffffffffffffffffffffffff168773ffffffffffffffffffffffffffffffffffffffff1614612354578060008084815260200190815260200160002060008973ffffffffffffffffffffffffffffffffffffffff1673ffffffffffffffffffffffffffffffffffffffff168152602001908152602001600020600082825461234c9190613778565b925050819055505b505080612360906138f0565b9050612157565b506001835103612426576000612387600085611a4490919063ffffffff16565b9050600061239f600085611a4490919063ffffffff16565b90508573ffffffffffffffffffffffffffffffffffffffff168773ffffffffffffffffffffffffffffffffffffffff168473ffffffffffffffffffffffffffffffffffffffff167fc3d58168c5ae7397731d063d5bbf3d657854427343f4c083240f7aacaa2d0f628585604051612417929190613961565b60405180910390a450506124a5565b8373ffffffffffffffffffffffffffffffffffffffff168573ffffffffffffffffffffffffffffffffffffffff168273ffffffffffffffffffffffffffffffffffffffff167f4a39dc06d4c0dbc64b70af90fd698a233a518aa5d07e595d983b8c0526c8f7fb868660405161249c929190613bc8565b60405180910390a45b5050505050565b60008473ffffffffffffffffffffffffffffffffffffffff163b1115612658578373ffffffffffffffffffffffffffffffffffffffff1663f23a6e6187878686866040518663ffffffff1660e01b815260040161250d959493929190613c54565b6020604051808303816000875af192505050801561254957506040513d601f19601f820116820180604052508101906125469190613cc3565b60015b6125cd573d8060008114612579576040519150601f19603f3d011682016040523d82523d6000602084013e61257e565b606091505b5060008151036125c557846040517f57f447ce0000000000000000000000000000000000000000000000000000000081526004016125bc9190613224565b60405180910390fd5b805181602001fd5b63f23a6e6160e01b7bffffffffffffffffffffffffffffffffffffffffffffffffffffffff1916817bffffffffffffffffffffffffffffffffffffffffffffffffffffffff19161461265657846040517f57f447ce00000000000000000000000000000000000000000000000000000000815260040161264d9190613224565b60405180910390fd5b505b505050505050565b60008473ffffffffffffffffffffffffffffffffffffffff163b111561280c578373ffffffffffffffffffffffffffffffffffffffff1663bc197c8187878686866040518663ffffffff1660e01b81526004016126c1959493929190613cf0565b6020604051808303816000875af19250505080156126fd57506040513d601f19601f820116820180604052508101906126fa9190613cc3565b60015b612781573d806000811461272d576040519150601f19603f3d011682016040523d82523d6000602084013e612732565b606091505b50600081510361277957846040517f57f447ce0000000000000000000000000000000000000000000000000000000081526004016127709190613224565b60405180910390fd5b805181602001fd5b63bc197c8160e01b7bffffffffffffffffffffffffffffffffffffffffffffffffffffffff1916817bffffffffffffffffffffffffffffffffffffffffffffffffffffffff19161461280a57846040517f57f447ce0000000000000000000000000000000000000000000000000000000081526004016128019190613224565b60405180910390fd5b505b505050505050565b600081831061282c57612827828461283f565b612837565b612836838361283f565b5b905092915050565b600082600052816020526040600020905092915050565b6000819050919050565b61286981612856565b82525050565b60006020820190506128846000830184612860565b92915050565b6000604051905090565b600080fd5b600080fd5b600073ffffffffffffffffffffffffffffffffffffffff82169050919050565b60006128c98261289e565b9050919050565b6128d9816128be565b81146128e457600080fd5b50565b6000813590506128f6816128d0565b92915050565b61290581612856565b811461291057600080fd5b50565b600081359050612922816128fc565b92915050565b6000806040838503121561293f5761293e612894565b5b600061294d858286016128e7565b925050602061295e85828601612913565b9150509250929050565b60007fffffffff0000000000000000000000000000000000000000000000000000000082169050919050565b61299d81612968565b81146129a857600080fd5b50565b6000813590506129ba81612994565b92915050565b6000602082840312156129d6576129d5612894565b5b60006129e4848285016129ab565b91505092915050565b60008115159050919050565b612a02816129ed565b82525050565b6000602082019050612a1d60008301846129f9565b92915050565b60008060408385031215612a3a57612a39612894565b5b6000612a4885828601612913565b9250506020612a5985828601612913565b9150509250929050565b600060208284031215612a7957612a78612894565b5b6000612a8784828501612913565b91505092915050565b6000606082019050612aa56000830186612860565b612ab26020830185612860565b612abf60408301846129f9565b949350505050565b600081519050919050565b600082825260208201905092915050565b60005b83811015612b01578082015181840152602081019050612ae6565b60008484015250505050565b6000601f19601f8301169050919050565b6000612b2982612ac7565b612b338185612ad2565b9350612b43818560208601612ae3565b612b4c81612b0d565b840191505092915050565b60006020820190508181036000830152612b718184612b1e565b905092915050565b600080fd5b7f4e487b7100000000000000000000000000000000000000000000000000000000600052604160045260246000fd5b612bb682612b0d565b810181811067ffffffffffffffff82111715612bd557612bd4612b7e565b5b80604052505050565b6000612be861288a565b9050612bf48282612bad565b919050565b600067ffffffffffffffff821115612c1457612c13612b7e565b5b602082029050602081019050919050565b600080fd5b6000612c3d612c3884612bf9565b612bde565b90508083825260208201905060208402830185811115612c6057612c5f612c25565b5b835b81811015612c895780612c758882612913565b845260208401935050602081019050612c62565b5050509392505050565b600082601f830112612ca857612ca7612b79565b5b8135612cb8848260208601612c2a565b91505092915050565b600080fd5b600067ffffffffffffffff821115612ce157612ce0612b7e565b5b612cea82612b0d565b9050602081019050919050565b82818337600083830152505050565b6000612d19612d1484612cc6565b612bde565b905082815260208101848484011115612d3557612d34612cc1565b5b612d40848285612cf7565b509392505050565b600082601f830112612d5d57612d5c612b79565b5b8135612d6d848260208601612d06565b91505092915050565b600080600080600060a08688031215612d9257612d91612894565b5b6000612da0888289016128e7565b9550506020612db1888289016128e7565b945050604086013567ffffffffffffffff811115612dd257612dd1612899565b5b612dde88828901612c93565b935050606086013567ffffffffffffffff811115612dff57612dfe612899565b5b612e0b88828901612c93565b925050608086013567ffffffffffffffff811115612e2c57612e2b612899565b5b612e3888828901612d48565b9150509295509295909350565b6000819050919050565b612e5881612e45565b82525050565b6000602082019050612e736000830184612e4f565b92915050565b600067ffffffffffffffff821115612e9457612e93612b7e565b5b602082029050602081019050919050565b6000612eb8612eb384612e79565b612bde565b90508083825260208201905060208402830185811115612edb57612eda612c25565b5b835b81811015612f045780612ef088826128e7565b845260208401935050602081019050612edd565b5050509392505050565b600082601f830112612f2357612f22612b79565b5b8135612f33848260208601612ea5565b91505092915050565b60008060408385031215612f5357612f52612894565b5b600083013567ffffffffffffffff811115612f7157612f70612899565b5b612f7d85828601612f0e565b925050602083013567ffffffffffffffff811115612f9e57612f9d612899565b5b612faa85828601612c93565b9150509250929050565b600081519050919050565b600082825260208201905092915050565b6000819050602082019050919050565b612fe981612856565b82525050565b6000612ffb8383612fe0565b60208301905092915050565b6000602082019050919050565b600061301f82612fb4565b6130298185612fbf565b935061303483612fd0565b8060005b8381101561306557815161304c8882612fef565b975061305783613007565b925050600181019050613038565b5085935050505092915050565b6000602082019050818103600083015261308c8184613014565b905092915050565b600080fd5b60008083601f8401126130af576130ae612b79565b5b8235905067ffffffffffffffff8111156130cc576130cb613094565b5b6020830191508360208202830111156130e8576130e7612c25565b5b9250929050565b6000806020838503121561310657613105612894565b5b600083013567ffffffffffffffff81111561312457613123612899565b5b61313085828601613099565b92509250509250929050565b60008060006060848603121561315557613154612894565b5b600061316386828701612913565b935050602061317486828701612913565b925050604061318586828701612913565b9150509250925092565b61319881612e45565b81146131a357600080fd5b50565b6000813590506131b58161318f565b92915050565b6000602082840312156131d1576131d0612894565b5b60006131df848285016131a6565b91505092915050565b6000602082840312156131fe576131fd612894565b5b600061320c848285016128e7565b91505092915050565b61321e816128be565b82525050565b60006020820190506132396000830184613215565b92915050565b613248816129ed565b811461325357600080fd5b50565b6000813590506132658161323f565b92915050565b6000806040838503121561328257613281612894565b5b6000613290858286016128e7565b92505060206132a185828601613256565b9150509250929050565b600080604083850312156132c2576132c1612894565b5b60006132d0858286016128e7565b92505060206132e1858286016128e7565b9150509250929050565b600080600080600060a0868803121561330757613306612894565b5b6000613315888289016128e7565b9550506020613326888289016128e7565b945050604061333788828901612913565b935050606061334888828901612913565b925050608086013567ffffffffffffffff81111561336957613368612899565b5b61337588828901612d48565b9150509295509295909350565b600081905092915050565b600061339882612ac7565b6133a28185613382565b93506133b2818560208601612ae3565b80840191505092915050565b7f2e6a736f6e000000000000000000000000000000000000000000000000000000600082015250565b60006133f4600583613382565b91506133ff826133be565b600582019050919050565b6000613416828561338d565b9150613422828461338d565b915061342d826133e7565b91508190509392505050565b7f416c7265616479206f776e732057617465720000000000000000000000000000600082015250565b600061346f601283612ad2565b915061347a82613439565b602082019050919050565b6000602082019050818103600083015261349e81613462565b9050919050565b7f416c7265616479206f776e732041697200000000000000000000000000000000600082015250565b60006134db601083612ad2565b91506134e6826134a5565b602082019050919050565b6000602082019050818103600083015261350a816134ce565b9050919050565b7f416c7265616479206f776e732046697265000000000000000000000000000000600082015250565b6000613547601183612ad2565b915061355282613511565b602082019050919050565b600060208201905081810360008301526135768161353a565b9050919050565b7f416c7265616479206f776e732045617274680000000000000000000000000000600082015250565b60006135b3601283612ad2565b91506135be8261357d565b602082019050919050565b600060208201905081810360008301526135e2816135a6565b9050919050565b7f4e487b7100000000000000000000000000000000000000000000000000000000600052601160045260246000fd5b600061362382612856565b915061362e83612856565b925082820261363c81612856565b91508282048414831517613653576136526135e9565b5b5092915050565b7f496e73756666696369656e74204554482073656e740000000000000000000000600082015250565b6000613690601583612ad2565b915061369b8261365a565b602082019050919050565b600060208201905081810360008301526136bf81613683565b9050919050565b600081905092915050565b50565b60006136e16000836136c6565b91506136ec826136d1565b600082019050919050565b6000613702826136d4565b9150819050919050565b7f4661696c656420746f2073656e64204554480000000000000000000000000000600082015250565b6000613742601283612ad2565b915061374d8261370c565b602082019050919050565b6000602082019050818103600083015261377181613735565b9050919050565b600061378382612856565b915061378e83612856565b92508282019050808211156137a6576137a56135e9565b5b92915050565b7f496e73756666696369656e742062616c616e6365206f6620656c656d656e7431600082015250565b60006137e2602083612ad2565b91506137ed826137ac565b602082019050919050565b60006020820190508181036000830152613811816137d5565b9050919050565b7f496e73756666696369656e742062616c616e6365206f6620656c656d656e7432600082015250565b600061384e602083612ad2565b915061385982613818565b602082019050919050565b6000602082019050818103600083015261387d81613841565b9050919050565b7f496e76616c696420636f6d62696e6174696f6e00000000000000000000000000600082015250565b60006138ba601383612ad2565b91506138c582613884565b602082019050919050565b600060208201905081810360008301526138e9816138ad565b9050919050565b60006138fb82612856565b91507fffffffffffffffffffffffffffffffffffffffffffffffffffffffffffffffff820361392d5761392c6135e9565b5b600182019050919050565b600060408201905061394d6000830185613215565b61395a6020830184613215565b9392505050565b60006040820190506139766000830185612860565b6139836020830184612860565b9392505050565b7f4e487b7100000000000000000000000000000000000000000000000000000000600052603260045260246000fd5b7f41697264726f7020616c726561647920636c61696d6564000000000000000000600082015250565b60006139ef601783612ad2565b91506139fa826139b9565b602082019050919050565b60006020820190508181036000830152613a1e816139e2565b9050919050565b60008160601b9050919050565b6000613a3d82613a25565b9050919050565b6000613a4f82613a32565b9050919050565b613a67613a62826128be565b613a44565b82525050565b6000613a798284613a56565b60148201915081905092915050565b7f496e76616c69642070726f6f6600000000000000000000000000000000000000600082015250565b6000613abe600d83612ad2565b9150613ac982613a88565b602082019050919050565b60006020820190508181036000830152613aed81613ab1565b9050919050565b7f4e487b7100000000000000000000000000000000000000000000000000000000600052602260045260246000fd5b60006002820490506001821680613b3b57607f821691505b602082108103613b4e57613b4d613af4565b5b50919050565b7f4e487b7100000000000000000000000000000000000000000000000000000000600052601260045260246000fd5b6000608082019050613b986000830187613215565b613ba56020830186612860565b613bb26040830185612860565b613bbf6060830184612860565b95945050505050565b60006040820190508181036000830152613be28185613014565b90508181036020830152613bf68184613014565b90509392505050565b600081519050919050565b600082825260208201905092915050565b6000613c2682613bff565b613c308185613c0a565b9350613c40818560208601612ae3565b613c4981612b0d565b840191505092915050565b600060a082019050613c696000830188613215565b613c766020830187613215565b613c836040830186612860565b613c906060830185612860565b8181036080830152613ca28184613c1b565b90509695505050505050565b600081519050613cbd81612994565b92915050565b600060208284031215613cd957613cd8612894565b5b6000613ce784828501613cae565b91505092915050565b600060a082019050613d056000830188613215565b613d126020830187613215565b8181036040830152613d248186613014565b90508181036060830152613d388185613014565b90508181036080830152613d4c8184613c1b565b9050969550505050505056fea26469706673582212203a94c75966031898e4975a6e8392fb92d2a8dcd5a4828b6c6730ed757776542564736f6c63430008140033",
  "linkReferences": {},
  "deployedLinkReferences": {}
}