{
  "_format": "hh-sol-artifact-1",
  "contractName": "NFTStake",
  "sourceName": "contracts/NFTStake.sol",
  "abi": [
    {
      "inputs": [
        {
          "internalType": "contract IERC1155",
          "name": "_nftContract",
          "type": "address"
        },
        {
          "internalType": "contract IERC20",
          "name": "_rewardToken",
          "type": "address"
        },
        {
          "internalType": "uint256",
          "name": "_rewardPerBlock",
          "type": "uint256"
        }
      ],
      "stateMutability": "nonpayable",
      "type": "constructor"
    },
    {
      "inputs": [],
      "name": "EnforcedPause",
      "type": "error"
    },
    {
      "inputs": [],
      "name": "ExpectedPause",
      "type": "error"
    },
    {
      "inputs": [],
      "name": "MathOverflowedMulDiv",
      "type": "error"
    },
    {
      "inputs": [
        {
          "internalType": "address",
          "name": "owner",
          "type": "address"
        }
      ],
      "name": "OwnableInvalidOwner",
      "type": "error"
    },
    {
      "inputs": [
        {
          "internalType": "address",
          "name": "account",
          "type": "address"
        }
      ],
      "name": "OwnableUnauthorizedAccount",
      "type": "error"
    },
    {
      "inputs": [],
      "name": "ReentrancyGuardReentrantCall",
      "type": "error"
    },
    {
      "anonymous": false,
      "inputs": [
        {
          "indexed": true,
          "internalType": "address",
          "name": "user",
          "type": "address"
        },
        {
          "indexed": false,
          "internalType": "uint256",
          "name": "amount",
          "type": "uint256"
        },
        {
          "indexed": false,
          "internalType": "uint256",
          "name": "index",
          "type": "uint256"
        }
      ],
      "name": "ClaimBox",
      "type": "event"
    },
    {
      "anonymous": false,
      "inputs": [
        {
          "indexed": true,
          "internalType": "address",
          "name": "user",
          "type": "address"
        },
        {
          "indexed": false,
          "internalType": "uint256",
          "name": "amount",
          "type": "uint256"
        }
      ],
      "name": "Claimed",
      "type": "event"
    },
    {
      "anonymous": false,
      "inputs": [
        {
          "indexed": true,
          "internalType": "address",
          "name": "previousOwner",
          "type": "address"
        },
        {
          "indexed": true,
          "internalType": "address",
          "name": "newOwner",
          "type": "address"
        }
      ],
      "name": "OwnershipTransferred",
      "type": "event"
    },
    {
      "anonymous": false,
      "inputs": [
        {
          "indexed": false,
          "internalType": "address",
          "name": "account",
          "type": "address"
        }
      ],
      "name": "Paused",
      "type": "event"
    },
    {
      "anonymous": false,
      "inputs": [
        {
          "indexed": true,
          "internalType": "address",
          "name": "user",
          "type": "address"
        },
        {
          "indexed": true,
          "internalType": "uint256",
          "name": "tokenId",
          "type": "uint256"
        },
        {
          "indexed": false,
          "internalType": "uint256",
          "name": "amount",
          "type": "uint256"
        }
      ],
      "name": "Staked",
      "type": "event"
    },
    {
      "anonymous": false,
      "inputs": [
        {
          "indexed": false,
          "internalType": "address",
          "name": "account",
          "type": "address"
        }
      ],
      "name": "Unpaused",
      "type": "event"
    },
    {
      "anonymous": false,
      "inputs": [
        {
          "indexed": true,
          "internalType": "address",
          "name": "user",
          "type": "address"
        },
        {
          "indexed": true,
          "internalType": "uint256",
          "name": "tokenId",
          "type": "uint256"
        },
        {
          "indexed": false,
          "internalType": "uint256",
          "name": "amount",
          "type": "uint256"
        }
      ],
      "name": "Unstaked",
      "type": "event"
    },
    {
      "inputs": [],
      "name": "BLOCKS_PER_DAY",
      "outputs": [
        {
          "internalType": "uint256",
          "name": "",
          "type": "uint256"
        }
      ],
      "stateMutability": "view",
      "type": "function"
    },
    {
      "inputs": [],
      "name": "MIN_STAKE_AMOUNT",
      "outputs": [
        {
          "internalType": "uint256",
          "name": "",
          "type": "uint256"
        }
      ],
      "stateMutability": "view",
      "type": "function"
    },
    {
      "inputs": [],
      "name": "UNSTAKE_COOLDOWN",
      "outputs": [
        {
          "internalType": "uint256",
          "name": "",
          "type": "uint256"
        }
      ],
      "stateMutability": "view",
      "type": "function"
    },
    {
      "inputs": [
        {
          "internalType": "address",
          "name": "_user",
          "type": "address"
        },
        {
          "internalType": "uint256",
          "name": "_id",
          "type": "uint256"
        }
      ],
      "name": "calculateReward",
      "outputs": [
        {
          "internalType": "uint256",
          "name": "",
          "type": "uint256"
        }
      ],
      "stateMutability": "view",
      "type": "function"
    },
    {
      "inputs": [],
      "name": "claimRewards",
      "outputs": [],
      "stateMutability": "nonpayable",
      "type": "function"
    },
    {
      "inputs": [
        {
          "internalType": "uint256",
          "name": "_amount",
          "type": "uint256"
        }
      ],
      "name": "depositRewards",
      "outputs": [],
      "stateMutability": "nonpayable",
      "type": "function"
    },
    {
      "inputs": [
        {
          "internalType": "uint256",
          "name": "_id",
          "type": "uint256"
        }
      ],
      "name": "getRewardPercentage",
      "outputs": [
        {
          "internalType": "uint256",
          "name": "",
          "type": "uint256"
        }
      ],
      "stateMutability": "pure",
      "type": "function"
    },
    {
      "inputs": [
        {
          "internalType": "address",
          "name": "_user",
          "type": "address"
        }
      ],
      "name": "getUserStakeIds",
      "outputs": [
        {
          "internalType": "uint256[]",
          "name": "",
          "type": "uint256[]"
        }
      ],
      "stateMutability": "view",
      "type": "function"
    },
    {
      "inputs": [],
      "name": "lastUpdateBlock",
      "outputs": [
        {
          "internalType": "uint256",
          "name": "",
          "type": "uint256"
        }
      ],
      "stateMutability": "view",
      "type": "function"
    },
    {
      "inputs": [],
      "name": "limitId",
      "outputs": [
        {
          "internalType": "uint256",
          "name": "",
          "type": "uint256"
        }
      ],
      "stateMutability": "view",
      "type": "function"
    },
    {
      "inputs": [],
      "name": "maxStakePerUser",
      "outputs": [
        {
          "internalType": "uint256",
          "name": "",
          "type": "uint256"
        }
      ],
      "stateMutability": "view",
      "type": "function"
    },
    {
      "inputs": [],
      "name": "nftContract",
      "outputs": [
        {
          "internalType": "contract IERC1155",
          "name": "",
          "type": "address"
        }
      ],
      "stateMutability": "view",
      "type": "function"
    },
    {
      "inputs": [
        {
          "internalType": "address",
          "name": "",
          "type": "address"
        },
        {
          "internalType": "address",
          "name": "",
          "type": "address"
        },
        {
          "internalType": "uint256[]",
          "name": "",
          "type": "uint256[]"
        },
        {
          "internalType": "uint256[]",
          "name": "",
          "type": "uint256[]"
        },
        {
          "internalType": "bytes",
          "name": "",
          "type": "bytes"
        }
      ],
      "name": "onERC1155BatchReceived",
      "outputs": [
        {
          "internalType": "bytes4",
          "name": "",
          "type": "bytes4"
        }
      ],
      "stateMutability": "nonpayable",
      "type": "function"
    },
    {
      "inputs": [
        {
          "internalType": "address",
          "name": "",
          "type": "address"
        },
        {
          "internalType": "address",
          "name": "",
          "type": "address"
        },
        {
          "internalType": "uint256",
          "name": "",
          "type": "uint256"
        },
        {
          "internalType": "uint256",
          "name": "",
          "type": "uint256"
        },
        {
          "internalType": "bytes",
          "name": "",
          "type": "bytes"
        }
      ],
      "name": "onERC1155Received",
      "outputs": [
        {
          "internalType": "bytes4",
          "name": "",
          "type": "bytes4"
        }
      ],
      "stateMutability": "nonpayable",
      "type": "function"
    },
    {
      "inputs": [],
      "name": "owner",
      "outputs": [
        {
          "internalType": "address",
          "name": "",
          "type": "address"
        }
      ],
      "stateMutability": "view",
      "type": "function"
    },
    {
      "inputs": [],
      "name": "pause",
      "outputs": [],
      "stateMutability": "nonpayable",
      "type": "function"
    },
    {
      "inputs": [],
      "name": "paused",
      "outputs": [
        {
          "internalType": "bool",
          "name": "",
          "type": "bool"
        }
      ],
      "stateMutability": "view",
      "type": "function"
    },
    {
      "inputs": [
        {
          "internalType": "address",
          "name": "tokenAddress",
          "type": "address"
        },
        {
          "internalType": "uint256",
          "name": "tokenId",
          "type": "uint256"
        },
        {
          "internalType": "uint256",
          "name": "amount",
          "type": "uint256"
        }
      ],
      "name": "recoverERC1155",
      "outputs": [],
      "stateMutability": "nonpayable",
      "type": "function"
    },
    {
      "inputs": [
        {
          "internalType": "address",
          "name": "tokenAddress",
          "type": "address"
        },
        {
          "internalType": "uint256",
          "name": "tokenAmount",
          "type": "uint256"
        }
      ],
      "name": "recoverERC20",
      "outputs": [],
      "stateMutability": "nonpayable",
      "type": "function"
    },
    {
      "inputs": [],
      "name": "renounceOwnership",
      "outputs": [],
      "stateMutability": "nonpayable",
      "type": "function"
    },
    {
      "inputs": [],
      "name": "rewardPerBlock",
      "outputs": [
        {
          "internalType": "uint256",
          "name": "",
          "type": "uint256"
        }
      ],
      "stateMutability": "view",
      "type": "function"
    },
    {
      "inputs": [],
      "name": "rewardToken",
      "outputs": [
        {
          "internalType": "contract IERC20",
          "name": "",
          "type": "address"
        }
      ],
      "stateMutability": "view",
      "type": "function"
    },
    {
      "inputs": [
        {
          "internalType": "uint256",
          "name": "_maxStake",
          "type": "uint256"
        }
      ],
      "name": "setMaxStakePerUser",
      "outputs": [],
      "stateMutability": "nonpayable",
      "type": "function"
    },
    {
      "inputs": [
        {
          "internalType": "uint256",
          "name": "_id",
          "type": "uint256"
        },
        {
          "internalType": "uint256",
          "name": "_amount",
          "type": "uint256"
        }
      ],
      "name": "stake",
      "outputs": [],
      "stateMutability": "nonpayable",
      "type": "function"
    },
    {
      "inputs": [
        {
          "internalType": "address",
          "name": "",
          "type": "address"
        }
      ],
      "name": "stakedBalance",
      "outputs": [
        {
          "internalType": "uint256",
          "name": "",
          "type": "uint256"
        }
      ],
      "stateMutability": "view",
      "type": "function"
    },
    {
      "inputs": [
        {
          "internalType": "address",
          "name": "",
          "type": "address"
        },
        {
          "internalType": "uint256",
          "name": "",
          "type": "uint256"
        }
      ],
      "name": "stakes",
      "outputs": [
        {
          "internalType": "uint128",
          "name": "id",
          "type": "uint128"
        },
        {
          "internalType": "uint128",
          "name": "amount",
          "type": "uint128"
        },
        {
          "internalType": "uint128",
          "name": "stakedAt",
          "type": "uint128"
        },
        {
          "internalType": "uint128",
          "name": "lastClaimed",
          "type": "uint128"
        }
      ],
      "stateMutability": "view",
      "type": "function"
    },
    {
      "inputs": [
        {
          "internalType": "bytes4",
          "name": "interfaceId",
          "type": "bytes4"
        }
      ],
      "name": "supportsInterface",
      "outputs": [
        {
          "internalType": "bool",
          "name": "",
          "type": "bool"
        }
      ],
      "stateMutability": "view",
      "type": "function"
    },
    {
      "inputs": [],
      "name": "totalStaked",
      "outputs": [
        {
          "internalType": "uint256",
          "name": "",
          "type": "uint256"
        }
      ],
      "stateMutability": "view",
      "type": "function"
    },
    {
      "inputs": [
        {
          "internalType": "address",
          "name": "newOwner",
          "type": "address"
        }
      ],
      "name": "transferOwnership",
      "outputs": [],
      "stateMutability": "nonpayable",
      "type": "function"
    },
    {
      "inputs": [],
      "name": "unpause",
      "outputs": [],
      "stateMutability": "nonpayable",
      "type": "function"
    },
    {
      "inputs": [
        {
          "internalType": "uint256",
          "name": "_id",
          "type": "uint256"
        }
      ],
      "name": "unstake",
      "outputs": [],
      "stateMutability": "nonpayable",
      "type": "function"
    },
    {
      "inputs": [
        {
          "internalType": "address",
          "name": "",
          "type": "address"
        },
        {
          "internalType": "uint256",
          "name": "",
          "type": "uint256"
        }
      ],
      "name": "userStakeIds",
      "outputs": [
        {
          "internalType": "uint256",
          "name": "",
          "type": "uint256"
        }
      ],
      "stateMutability": "view",
      "type": "function"
    },
    {
      "inputs": [
        {
          "internalType": "uint256",
          "name": "_amount",
          "type": "uint256"
        }
      ],
      "name": "withdrawRewards",
      "outputs": [],
      "stateMutability": "nonpayable",
      "type": "function"
    }
  ],
  "bytecode": "0x608060405260646008553480156200001657600080fd5b506040516200369b3803806200369b83398181016040528101906200003c919062000348565b33600073ffffffffffffffffffffffffffffffffffffffff168173ffffffffffffffffffffffffffffffffffffffff1603620000b25760006040517f1e4fbdf7000000000000000000000000000000000000000000000000000000008152600401620000a99190620003b5565b60405180910390fd5b620000c3816200018660201b60201c565b50600180819055506000600260006101000a81548160ff02191690831515021790555082600260016101000a81548173ffffffffffffffffffffffffffffffffffffffff021916908373ffffffffffffffffffffffffffffffffffffffff16021790555081600360006101000a81548173ffffffffffffffffffffffffffffffffffffffff021916908373ffffffffffffffffffffffffffffffffffffffff160217905550806005819055506004808190555043600781905550505050620003d2565b60008060009054906101000a900473ffffffffffffffffffffffffffffffffffffffff169050816000806101000a81548173ffffffffffffffffffffffffffffffffffffffff021916908373ffffffffffffffffffffffffffffffffffffffff1602179055508173ffffffffffffffffffffffffffffffffffffffff168173ffffffffffffffffffffffffffffffffffffffff167f8be0079c531659141344cd1fd0a4f28419497f9722a3daafe3b4186f6b6457e060405160405180910390a35050565b600080fd5b600073ffffffffffffffffffffffffffffffffffffffff82169050919050565b60006200027c826200024f565b9050919050565b600062000290826200026f565b9050919050565b620002a28162000283565b8114620002ae57600080fd5b50565b600081519050620002c28162000297565b92915050565b6000620002d5826200026f565b9050919050565b620002e781620002c8565b8114620002f357600080fd5b50565b6000815190506200030781620002dc565b92915050565b6000819050919050565b62000322816200030d565b81146200032e57600080fd5b50565b600081519050620003428162000317565b92915050565b6000806000606084860312156200036457620003636200024a565b5b60006200037486828701620002b1565b93505060206200038786828701620002f6565b92505060406200039a8682870162000331565b9150509250925092565b620003af816200026f565b82525050565b6000602082019050620003cc6000830184620003a4565b92915050565b6132b980620003e26000396000f3fe608060405234801561001057600080fd5b50600436106101fb5760003560e01c8063715018a61161011a5780639342c8f4116100ad578063cbaa1d9b1161007c578063cbaa1d9b1461057f578063d56d229d1461059b578063f23a6e61146105b9578063f2fde38b146105e9578063f7c618c114610605576101fb565b80639342c8f4146104e5578063a218141b14610501578063bc197c811461051f578063c517841c1461054f576101fb565b80638980f11f116100e95780638980f11f146104715780638ae39cac1461048d5780638bdf67f2146104ab5780638da5cb5b146104c7576101fb565b8063715018a6146104235780637b0472f01461042d578063817b1cd2146104495780638456cb5914610467576101fb565b8063372500ab11610192578063584b62a111610161578063584b62a1146103845780635c975abb146103b757806360217267146103d55780636bb987fe14610405576101fb565b8063372500ab146103365780633a87286b146103405780633f4ba83a1461035e57806357c81b9214610368576101fb565b806327ed7188116101ce57806327ed71881461029c57806328b773d7146102ba5780632e17de78146102ea578063313da78f14610306576101fb565b806301ffc9a7146102005780630717d032146102305780630b60c58f1461024e5780631852e8d91461026c575b600080fd5b61021a600480360381019061021591906122f4565b610623565b604051610227919061233c565b60405180910390f35b61023861069d565b6040516102459190612370565b60405180910390f35b6102566106a3565b6040516102639190612370565b60405180910390f35b61028660048036038101906102819190612415565b6106aa565b6040516102939190612370565b60405180910390f35b6102a4610827565b6040516102b19190612370565b60405180910390f35b6102d460048036038101906102cf9190612455565b61082c565b6040516102e19190612370565b60405180910390f35b61030460048036038101906102ff9190612455565b61087c565b005b610320600480360381019061031b9190612482565b610d4c565b60405161032d919061256d565b60405180910390f35b61033e610de3565b005b6103486110d4565b6040516103559190612370565b60405180910390f35b6103666110da565b005b610382600480360381019061037d9190612455565b6110ec565b005b61039e60048036038101906103999190612415565b6110fe565b6040516103ae94939291906125ba565b60405180910390f35b6103bf6111ab565b6040516103cc919061233c565b60405180910390f35b6103ef60048036038101906103ea9190612482565b6111c2565b6040516103fc9190612370565b60405180910390f35b61040d6111da565b60405161041a9190612370565b60405180910390f35b61042b6111e0565b005b610447600480360381019061044291906125ff565b6111f4565b005b61045161194e565b60405161045e9190612370565b60405180910390f35b61046f611954565b005b61048b60048036038101906104869190612415565b611966565b005b6104956119f8565b6040516104a29190612370565b60405180910390f35b6104c560048036038101906104c09190612455565b6119fe565b005b6104cf611aaa565b6040516104dc919061264e565b60405180910390f35b6104ff60048036038101906104fa9190612455565b611ad3565b005b610509611c5d565b6040516105169190612370565b60405180910390f35b61053960048036038101906105349190612877565b611c63565b6040516105469190612955565b60405180910390f35b61056960048036038101906105649190612415565b611c78565b6040516105769190612370565b60405180910390f35b61059960048036038101906105949190612970565b611ca9565b005b6105a3611d2e565b6040516105b09190612a22565b60405180910390f35b6105d360048036038101906105ce9190612a3d565b611d54565b6040516105e09190612955565b60405180910390f35b61060360048036038101906105fe9190612482565b611d69565b005b61060d611def565b60405161061a9190612af5565b60405180910390f35b60007f4e2312e0000000000000000000000000000000000000000000000000000000007bffffffffffffffffffffffffffffffffffffffffffffffffffffffff1916827bffffffffffffffffffffffffffffffffffffffffffffffffffffffff19161480610696575061069582611e15565b5b9050919050565b60085481565b6201518081565b600080600960008573ffffffffffffffffffffffffffffffffffffffff1673ffffffffffffffffffffffffffffffffffffffff1681526020019081526020016000206000848152602001908152602001600020905060008160000160109054906101000a90046fffffffffffffffffffffffffffffffff166fffffffffffffffffffffffffffffffff1603610743576000915050610821565b60008160010160109054906101000a90046fffffffffffffffffffffffffffffffff166fffffffffffffffffffffffffffffffff16426107839190612b3f565b90506000600f826107949190612ba2565b90506107a281611680611e7f565b905060006107af8661082c565b90506000610816600554846107c49190612bd3565b838760000160109054906101000a90046fffffffffffffffffffffffffffffffff166fffffffffffffffffffffffffffffffff166108029190612bd3565b60646006546108119190612bd3565b611e98565b905080955050505050505b92915050565b600181565b60006014821161083f5760199050610877565b601582036108505760329050610877565b6016820361086157604b9050610877565b601782036108725760649050610877565b600090505b919050565b610884611f9f565b6000600960003373ffffffffffffffffffffffffffffffffffffffff1673ffffffffffffffffffffffffffffffffffffffff1681526020019081526020016000206000838152602001908152602001600020905060008160000160109054906101000a90046fffffffffffffffffffffffffffffffff166fffffffffffffffffffffffffffffffff161161094d576040517f08c379a000000000000000000000000000000000000000000000000000000000815260040161094490612c72565b60405180910390fd5b620151808160010160009054906101000a90046fffffffffffffffffffffffffffffffff166fffffffffffffffffffffffffffffffff1661098e9190612c92565b4210156109d0576040517f08c379a00000000000000000000000000000000000000000000000000000000081526004016109c790612d12565b60405180910390fd5b60008160000160109054906101000a90046fffffffffffffffffffffffffffffffff166fffffffffffffffffffffffffffffffff1690506000610a1333856106aa565b9050600960003373ffffffffffffffffffffffffffffffffffffffff1673ffffffffffffffffffffffffffffffffffffffff1681526020019081526020016000206000858152602001908152602001600020600080820160006101000a8154906fffffffffffffffffffffffffffffffff02191690556000820160106101000a8154906fffffffffffffffffffffffffffffffff02191690556001820160006101000a8154906fffffffffffffffffffffffffffffffff02191690556001820160106101000a8154906fffffffffffffffffffffffffffffffff0219169055505081600b60003373ffffffffffffffffffffffffffffffffffffffff1673ffffffffffffffffffffffffffffffffffffffff1681526020019081526020016000206000828254610b439190612b3f565b925050819055508160066000828254610b5c9190612b3f565b925050819055506000811115610c0e57600360009054906101000a900473ffffffffffffffffffffffffffffffffffffffff1673ffffffffffffffffffffffffffffffffffffffff1663a9059cbb33836040518363ffffffff1660e01b8152600401610bc9929190612d32565b6020604051808303816000875af1158015610be8573d6000803e3d6000fd5b505050506040513d601f19601f82011682018060405250810190610c0c9190612d87565b505b600260019054906101000a900473ffffffffffffffffffffffffffffffffffffffff1673ffffffffffffffffffffffffffffffffffffffff1663f242432a303387866040518563ffffffff1660e01b8152600401610c6f9493929190612deb565b600060405180830381600087803b158015610c8957600080fd5b505af1158015610c9d573d6000803e3d6000fd5b50505050833373ffffffffffffffffffffffffffffffffffffffff167f7fc4727e062e336010f2c282598ef5f14facb3de68cf8195c2f23e1454b2b74e84604051610ce89190612370565b60405180910390a33373ffffffffffffffffffffffffffffffffffffffff167fd8138f8a3f377c5259ca548e70e4c2de94f129f5a11036a15b69513cba2b426a82604051610d369190612370565b60405180910390a2505050610d49611fe5565b50565b6060600a60008373ffffffffffffffffffffffffffffffffffffffff1673ffffffffffffffffffffffffffffffffffffffff168152602001908152602001600020805480602002602001604051908101604052809291908181526020018280548015610dd757602002820191906000526020600020905b815481526020019060010190808311610dc3575b50505050509050919050565b610deb611f9f565b6000805b600a60003373ffffffffffffffffffffffffffffffffffffffff1673ffffffffffffffffffffffffffffffffffffffff16815260200190815260200160002080549050811015610f96576000600a60003373ffffffffffffffffffffffffffffffffffffffff1673ffffffffffffffffffffffffffffffffffffffff1681526020019081526020016000208281548110610e8c57610e8b612e43565b5b906000526020600020015490506000600960003373ffffffffffffffffffffffffffffffffffffffff1673ffffffffffffffffffffffffffffffffffffffff1681526020019081526020016000206000838152602001908152602001600020905060008160000160109054906101000a90046fffffffffffffffffffffffffffffffff166fffffffffffffffffffffffffffffffff161115610f81576000610f3433846106aa565b90508085610f429190612c92565b9450428260010160106101000a8154816fffffffffffffffffffffffffffffffff02191690836fffffffffffffffffffffffffffffffff160217905550505b50508080610f8e90612e72565b915050610def565b5060008111610fda576040517f08c379a0000000000000000000000000000000000000000000000000000000008152600401610fd190612f06565b60405180910390fd5b600360009054906101000a900473ffffffffffffffffffffffffffffffffffffffff1673ffffffffffffffffffffffffffffffffffffffff1663a9059cbb33836040518363ffffffff1660e01b8152600401611037929190612d32565b6020604051808303816000875af1158015611056573d6000803e3d6000fd5b505050506040513d601f19601f8201168201806040525081019061107a9190612d87565b503373ffffffffffffffffffffffffffffffffffffffff167fd8138f8a3f377c5259ca548e70e4c2de94f129f5a11036a15b69513cba2b426a826040516110c19190612370565b60405180910390a2506110d2611fe5565b565b60045481565b6110e2611fee565b6110ea612075565b565b6110f4611fee565b8060088190555050565b6009602052816000526040600020602052806000526040600020600091509150508060000160009054906101000a90046fffffffffffffffffffffffffffffffff16908060000160109054906101000a90046fffffffffffffffffffffffffffffffff16908060010160009054906101000a90046fffffffffffffffffffffffffffffffff16908060010160109054906101000a90046fffffffffffffffffffffffffffffffff16905084565b6000600260009054906101000a900460ff16905090565b600b6020528060005260406000206000915090505481565b61168081565b6111e8611fee565b6111f260006120d8565b565b6111fc61219c565b611204611f9f565b6001811015611248576040517f08c379a000000000000000000000000000000000000000000000000000000000815260040161123f90612f72565b60405180910390fd5b80600260019054906101000a900473ffffffffffffffffffffffffffffffffffffffff1673ffffffffffffffffffffffffffffffffffffffff1662fdd58e33856040518363ffffffff1660e01b81526004016112a5929190612d32565b602060405180830381865afa1580156112c2573d6000803e3d6000fd5b505050506040513d601f19601f820116820180604052508101906112e69190612fa7565b1015611327576040517f08c379a000000000000000000000000000000000000000000000000000000000815260040161131e90613020565b60405180910390fd5b600260019054906101000a900473ffffffffffffffffffffffffffffffffffffffff1673ffffffffffffffffffffffffffffffffffffffff1663e985e9c533306040518363ffffffff1660e01b8152600401611384929190613040565b602060405180830381865afa1580156113a1573d6000803e3d6000fd5b505050506040513d601f19601f820116820180604052508101906113c59190612d87565b611404576040517f08c379a00000000000000000000000000000000000000000000000000000000081526004016113fb906130b5565b60405180910390fd5b600454821015611449576040517f08c379a000000000000000000000000000000000000000000000000000000000815260040161144090613121565b60405180910390fd5b60085481600b60003373ffffffffffffffffffffffffffffffffffffffff1673ffffffffffffffffffffffffffffffffffffffff168152602001908152602001600020546114979190612c92565b11156114d8576040517f08c379a00000000000000000000000000000000000000000000000000000000081526004016114cf9061318d565b60405180910390fd5b600260019054906101000a900473ffffffffffffffffffffffffffffffffffffffff1673ffffffffffffffffffffffffffffffffffffffff1663f242432a333085856040518563ffffffff1660e01b81526004016115399493929190612deb565b600060405180830381600087803b15801561155357600080fd5b505af1158015611567573d6000803e3d6000fd5b505050506000600960003373ffffffffffffffffffffffffffffffffffffffff1673ffffffffffffffffffffffffffffffffffffffff1681526020019081526020016000206000848152602001908152602001600020905060008160000160109054906101000a90046fffffffffffffffffffffffffffffffff166fffffffffffffffffffffffffffffffff16111561166457818160000160108282829054906101000a90046fffffffffffffffffffffffffffffffff1661162991906131ad565b92506101000a8154816fffffffffffffffffffffffffffffffff02191690836fffffffffffffffffffffffffffffffff160217905550611883565b6040518060800160405280846fffffffffffffffffffffffffffffffff168152602001836fffffffffffffffffffffffffffffffff168152602001426fffffffffffffffffffffffffffffffff168152602001426fffffffffffffffffffffffffffffffff16815250600960003373ffffffffffffffffffffffffffffffffffffffff1673ffffffffffffffffffffffffffffffffffffffff168152602001908152602001600020600085815260200190815260200160002060008201518160000160006101000a8154816fffffffffffffffffffffffffffffffff02191690836fffffffffffffffffffffffffffffffff16021790555060208201518160000160106101000a8154816fffffffffffffffffffffffffffffffff02191690836fffffffffffffffffffffffffffffffff16021790555060408201518160010160006101000a8154816fffffffffffffffffffffffffffffffff02191690836fffffffffffffffffffffffffffffffff16021790555060608201518160010160106101000a8154816fffffffffffffffffffffffffffffffff02191690836fffffffffffffffffffffffffffffffff160217905550905050600a60003373ffffffffffffffffffffffffffffffffffffffff1673ffffffffffffffffffffffffffffffffffffffff1681526020019081526020016000208390806001815401808255809150506001900390600052602060002001600090919091909150555b81600b60003373ffffffffffffffffffffffffffffffffffffffff1673ffffffffffffffffffffffffffffffffffffffff16815260200190815260200160002060008282546118d29190612c92565b9250508190555081600660008282546118eb9190612c92565b92505081905550823373ffffffffffffffffffffffffffffffffffffffff167f1449c6dd7851abc30abf37f57715f492010519147cc2652fbc38202c18a6ee90846040516119399190612370565b60405180910390a35061194a611fe5565b5050565b60065481565b61195c611fee565b6119646121dd565b565b61196e611fee565b8173ffffffffffffffffffffffffffffffffffffffff1663a9059cbb611992611aaa565b836040518363ffffffff1660e01b81526004016119b0929190612d32565b6020604051808303816000875af11580156119cf573d6000803e3d6000fd5b505050506040513d601f19601f820116820180604052508101906119f39190612d87565b505050565b60055481565b611a06611fee565b600360009054906101000a900473ffffffffffffffffffffffffffffffffffffffff1673ffffffffffffffffffffffffffffffffffffffff1663a9059cbb30836040518363ffffffff1660e01b8152600401611a63929190612d32565b6020604051808303816000875af1158015611a82573d6000803e3d6000fd5b505050506040513d601f19601f82011682018060405250810190611aa69190612d87565b5050565b60008060009054906101000a900473ffffffffffffffffffffffffffffffffffffffff16905090565b611adb611fee565b80600360009054906101000a900473ffffffffffffffffffffffffffffffffffffffff1673ffffffffffffffffffffffffffffffffffffffff166370a08231306040518263ffffffff1660e01b8152600401611b37919061264e565b602060405180830381865afa158015611b54573d6000803e3d6000fd5b505050506040513d601f19601f82011682018060405250810190611b789190612fa7565b1015611bb9576040517f08c379a0000000000000000000000000000000000000000000000000000000008152600401611bb090613263565b60405180910390fd5b600360009054906101000a900473ffffffffffffffffffffffffffffffffffffffff1673ffffffffffffffffffffffffffffffffffffffff1663a9059cbb33836040518363ffffffff1660e01b8152600401611c16929190612d32565b6020604051808303816000875af1158015611c35573d6000803e3d6000fd5b505050506040513d601f19601f82011682018060405250810190611c599190612d87565b5050565b60075481565b600063bc197c8160e01b905095945050505050565b600a6020528160005260406000208181548110611c9457600080fd5b90600052602060002001600091509150505481565b611cb1611fee565b8273ffffffffffffffffffffffffffffffffffffffff1663f242432a30611cd6611aaa565b85856040518563ffffffff1660e01b8152600401611cf79493929190612deb565b600060405180830381600087803b158015611d1157600080fd5b505af1158015611d25573d6000803e3d6000fd5b50505050505050565b600260019054906101000a900473ffffffffffffffffffffffffffffffffffffffff1681565b600063f23a6e6160e01b905095945050505050565b611d71611fee565b600073ffffffffffffffffffffffffffffffffffffffff168173ffffffffffffffffffffffffffffffffffffffff1603611de35760006040517f1e4fbdf7000000000000000000000000000000000000000000000000000000008152600401611dda919061264e565b60405180910390fd5b611dec816120d8565b50565b600360009054906101000a900473ffffffffffffffffffffffffffffffffffffffff1681565b60007f01ffc9a7000000000000000000000000000000000000000000000000000000007bffffffffffffffffffffffffffffffffffffffffffffffffffffffff1916827bffffffffffffffffffffffffffffffffffffffffffffffffffffffff1916149050919050565b6000818310611e8e5781611e90565b825b905092915050565b6000808385029050600080198587098281108382030391505060008103611ed357838281611ec957611ec8612b73565b5b0492505050611f98565b808411611f0c576040517f227bc15300000000000000000000000000000000000000000000000000000000815260040160405180910390fd5b600084868809905082811182039150808303925060008560000386169050808604955080840493506001818260000304019050808302841793506000600287600302189050808702600203810290508087026002038102905080870260020381029050808702600203810290508087026002038102905080870260020381029050808502955050505050505b9392505050565b600260015403611fdb576040517f3ee5aeb500000000000000000000000000000000000000000000000000000000815260040160405180910390fd5b6002600181905550565b60018081905550565b611ff6612240565b73ffffffffffffffffffffffffffffffffffffffff16612014611aaa565b73ffffffffffffffffffffffffffffffffffffffff161461207357612037612240565b6040517f118cdaa700000000000000000000000000000000000000000000000000000000815260040161206a919061264e565b60405180910390fd5b565b61207d612248565b6000600260006101000a81548160ff0219169083151502179055507f5db9ee0a495bf2e6ff9c91a7834c1ba4fdd244a5e8aa4e537bd38aeae4b073aa6120c1612240565b6040516120ce919061264e565b60405180910390a1565b60008060009054906101000a900473ffffffffffffffffffffffffffffffffffffffff169050816000806101000a81548173ffffffffffffffffffffffffffffffffffffffff021916908373ffffffffffffffffffffffffffffffffffffffff1602179055508173ffffffffffffffffffffffffffffffffffffffff168173ffffffffffffffffffffffffffffffffffffffff167f8be0079c531659141344cd1fd0a4f28419497f9722a3daafe3b4186f6b6457e060405160405180910390a35050565b6121a46111ab565b156121db576040517fd93c066500000000000000000000000000000000000000000000000000000000815260040160405180910390fd5b565b6121e561219c565b6001600260006101000a81548160ff0219169083151502179055507f62e78cea01bee320cd4e420270b5ea74000d11b0c9f74754ebdbfc544b05a258612229612240565b604051612236919061264e565b60405180910390a1565b600033905090565b6122506111ab565b612286576040517f8dfc202b00000000000000000000000000000000000000000000000000000000815260040160405180910390fd5b565b6000604051905090565b600080fd5b600080fd5b60007fffffffff0000000000000000000000000000000000000000000000000000000082169050919050565b6122d18161229c565b81146122dc57600080fd5b50565b6000813590506122ee816122c8565b92915050565b60006020828403121561230a57612309612292565b5b6000612318848285016122df565b91505092915050565b60008115159050919050565b61233681612321565b82525050565b6000602082019050612351600083018461232d565b92915050565b6000819050919050565b61236a81612357565b82525050565b60006020820190506123856000830184612361565b92915050565b600073ffffffffffffffffffffffffffffffffffffffff82169050919050565b60006123b68261238b565b9050919050565b6123c6816123ab565b81146123d157600080fd5b50565b6000813590506123e3816123bd565b92915050565b6123f281612357565b81146123fd57600080fd5b50565b60008135905061240f816123e9565b92915050565b6000806040838503121561242c5761242b612292565b5b600061243a858286016123d4565b925050602061244b85828601612400565b9150509250929050565b60006020828403121561246b5761246a612292565b5b600061247984828501612400565b91505092915050565b60006020828403121561249857612497612292565b5b60006124a6848285016123d4565b91505092915050565b600081519050919050565b600082825260208201905092915050565b6000819050602082019050919050565b6124e481612357565b82525050565b60006124f683836124db565b60208301905092915050565b6000602082019050919050565b600061251a826124af565b61252481856124ba565b935061252f836124cb565b8060005b8381101561256057815161254788826124ea565b975061255283612502565b925050600181019050612533565b5085935050505092915050565b60006020820190508181036000830152612587818461250f565b905092915050565b60006fffffffffffffffffffffffffffffffff82169050919050565b6125b48161258f565b82525050565b60006080820190506125cf60008301876125ab565b6125dc60208301866125ab565b6125e960408301856125ab565b6125f660608301846125ab565b95945050505050565b6000806040838503121561261657612615612292565b5b600061262485828601612400565b925050602061263585828601612400565b9150509250929050565b612648816123ab565b82525050565b6000602082019050612663600083018461263f565b92915050565b600080fd5b6000601f19601f8301169050919050565b7f4e487b7100000000000000000000000000000000000000000000000000000000600052604160045260246000fd5b6126b78261266e565b810181811067ffffffffffffffff821117156126d6576126d561267f565b5b80604052505050565b60006126e9612288565b90506126f582826126ae565b919050565b600067ffffffffffffffff8211156127155761271461267f565b5b602082029050602081019050919050565b600080fd5b600061273e612739846126fa565b6126df565b9050808382526020820190506020840283018581111561276157612760612726565b5b835b8181101561278a57806127768882612400565b845260208401935050602081019050612763565b5050509392505050565b600082601f8301126127a9576127a8612669565b5b81356127b984826020860161272b565b91505092915050565b600080fd5b600067ffffffffffffffff8211156127e2576127e161267f565b5b6127eb8261266e565b9050602081019050919050565b82818337600083830152505050565b600061281a612815846127c7565b6126df565b905082815260208101848484011115612836576128356127c2565b5b6128418482856127f8565b509392505050565b600082601f83011261285e5761285d612669565b5b813561286e848260208601612807565b91505092915050565b600080600080600060a0868803121561289357612892612292565b5b60006128a1888289016123d4565b95505060206128b2888289016123d4565b945050604086013567ffffffffffffffff8111156128d3576128d2612297565b5b6128df88828901612794565b935050606086013567ffffffffffffffff811115612900576128ff612297565b5b61290c88828901612794565b925050608086013567ffffffffffffffff81111561292d5761292c612297565b5b61293988828901612849565b9150509295509295909350565b61294f8161229c565b82525050565b600060208201905061296a6000830184612946565b92915050565b60008060006060848603121561298957612988612292565b5b6000612997868287016123d4565b93505060206129a886828701612400565b92505060406129b986828701612400565b9150509250925092565b6000819050919050565b60006129e86129e36129de8461238b565b6129c3565b61238b565b9050919050565b60006129fa826129cd565b9050919050565b6000612a0c826129ef565b9050919050565b612a1c81612a01565b82525050565b6000602082019050612a376000830184612a13565b92915050565b600080600080600060a08688031215612a5957612a58612292565b5b6000612a67888289016123d4565b9550506020612a78888289016123d4565b9450506040612a8988828901612400565b9350506060612a9a88828901612400565b925050608086013567ffffffffffffffff811115612abb57612aba612297565b5b612ac788828901612849565b9150509295509295909350565b6000612adf826129ef565b9050919050565b612aef81612ad4565b82525050565b6000602082019050612b0a6000830184612ae6565b92915050565b7f4e487b7100000000000000000000000000000000000000000000000000000000600052601160045260246000fd5b6000612b4a82612357565b9150612b5583612357565b9250828203905081811115612b6d57612b6c612b10565b5b92915050565b7f4e487b7100000000000000000000000000000000000000000000000000000000600052601260045260246000fd5b6000612bad82612357565b9150612bb883612357565b925082612bc857612bc7612b73565b5b828204905092915050565b6000612bde82612357565b9150612be983612357565b9250828202612bf781612357565b91508282048414831517612c0e57612c0d612b10565b5b5092915050565b600082825260208201905092915050565b7f4e46545374616b696e673a206e6f207374616b6520666f756e64000000000000600082015250565b6000612c5c601a83612c15565b9150612c6782612c26565b602082019050919050565b60006020820190508181036000830152612c8b81612c4f565b9050919050565b6000612c9d82612357565b9150612ca883612357565b9250828201905080821115612cc057612cbf612b10565b5b92915050565b7f436f6f6c646f776e20706572696f64206e6f74206f7665720000000000000000600082015250565b6000612cfc601883612c15565b9150612d0782612cc6565b602082019050919050565b60006020820190508181036000830152612d2b81612cef565b9050919050565b6000604082019050612d47600083018561263f565b612d546020830184612361565b9392505050565b612d6481612321565b8114612d6f57600080fd5b50565b600081519050612d8181612d5b565b92915050565b600060208284031215612d9d57612d9c612292565b5b6000612dab84828501612d72565b91505092915050565b600082825260208201905092915050565b50565b6000612dd5600083612db4565b9150612de082612dc5565b600082019050919050565b600060a082019050612e00600083018761263f565b612e0d602083018661263f565b612e1a6040830185612361565b612e276060830184612361565b8181036080830152612e3881612dc8565b905095945050505050565b7f4e487b7100000000000000000000000000000000000000000000000000000000600052603260045260246000fd5b6000612e7d82612357565b91507fffffffffffffffffffffffffffffffffffffffffffffffffffffffffffffffff8203612eaf57612eae612b10565b5b600182019050919050565b7f4e46545374616b696e673a206e6f207265776172647320746f20636c61696d00600082015250565b6000612ef0601f83612c15565b9150612efb82612eba565b602082019050919050565b60006020820190508181036000830152612f1f81612ee3565b9050919050565b7f4e46545374616b696e673a20616d6f756e7420746f6f206c6f77000000000000600082015250565b6000612f5c601a83612c15565b9150612f6782612f26565b602082019050919050565b60006020820190508181036000830152612f8b81612f4f565b9050919050565b600081519050612fa1816123e9565b92915050565b600060208284031215612fbd57612fbc612292565b5b6000612fcb84828501612f92565b91505092915050565b7f4e46545374616b696e673a20696e73756666696369656e742062616c616e6365600082015250565b600061300a602083612c15565b915061301582612fd4565b602082019050919050565b6000602082019050818103600083015261303981612ffd565b9050919050565b6000604082019050613055600083018561263f565b613062602083018461263f565b9392505050565b7f4e46545374616b696e673a206e6f7420617070726f7665640000000000000000600082015250565b600061309f601883612c15565b91506130aa82613069565b602082019050919050565b600060208201905081810360008301526130ce81613092565b9050919050565b7f6e6f74207374616b61626c650000000000000000000000000000000000000000600082015250565b600061310b600c83612c15565b9150613116826130d5565b602082019050919050565b6000602082019050818103600083015261313a816130fe565b9050919050565b7f45786365656473206d6178207374616b65206c696d6974000000000000000000600082015250565b6000613177601783612c15565b915061318282613141565b602082019050919050565b600060208201905081810360008301526131a68161316a565b9050919050565b60006131b88261258f565b91506131c38361258f565b925082820190506fffffffffffffffffffffffffffffffff8111156131eb576131ea612b10565b5b92915050565b7f496e73756666696369656e742072657761726420746f6b656e2062616c616e6360008201527f6500000000000000000000000000000000000000000000000000000000000000602082015250565b600061324d602183612c15565b9150613258826131f1565b604082019050919050565b6000602082019050818103600083015261327c81613240565b905091905056fea2646970667358221220410575e949dc7891054724e2ea05caff9da5464c68871076ac3858307a5ab00664736f6c63430008140033",
  "linkReferences": {},
  "deployedLinkReferences": {}
}