{
  "_format": "hh-sol-artifact-1",
  "contractName": "ALCHI",
  "sourceName": "contracts/Token.sol",
  "abi": [
    {
      "inputs": [],
      "stateMutability": "nonpayable",
      "type": "constructor"
    },
    {
      "inputs": [
        {
          "internalType": "address",
          "name": "spender",
          "type": "address"
        },
        {
          "internalType": "uint256",
          "name": "allowance",
          "type": "uint256"
        },
        {
          "internalType": "uint256",
          "name": "needed",
          "type": "uint256"
        }
      ],
      "name": "ERC20InsufficientAllowance",
      "type": "error"
    },
    {
      "inputs": [
        {
          "internalType": "address",
          "name": "sender",
          "type": "address"
        },
        {
          "internalType": "uint256",
          "name": "balance",
          "type": "uint256"
        },
        {
          "internalType": "uint256",
          "name": "needed",
          "type": "uint256"
        }
      ],
      "name": "ERC20InsufficientBalance",
      "type": "error"
    },
    {
      "inputs": [
        {
          "internalType": "address",
          "name": "approver",
          "type": "address"
        }
      ],
      "name": "ERC20InvalidApprover",
      "type": "error"
    },
    {
      "inputs": [
        {
          "internalType": "address",
          "name": "receiver",
          "type": "address"
        }
      ],
      "name": "ERC20InvalidReceiver",
      "type": "error"
    },
    {
      "inputs": [
        {
          "internalType": "address",
          "name": "sender",
          "type": "address"
        }
      ],
      "name": "ERC20InvalidSender",
      "type": "error"
    },
    {
      "inputs": [
        {
          "internalType": "address",
          "name": "spender",
          "type": "address"
        }
      ],
      "name": "ERC20InvalidSpender",
      "type": "error"
    },
    {
      "inputs": [
        {
          "internalType": "address",
          "name": "owner",
          "type": "address"
        }
      ],
      "name": "OwnableInvalidOwner",
      "type": "error"
    },
    {
      "inputs": [
        {
          "internalType": "address",
          "name": "account",
          "type": "address"
        }
      ],
      "name": "OwnableUnauthorizedAccount",
      "type": "error"
    },
    {
      "anonymous": false,
      "inputs": [
        {
          "indexed": true,
          "internalType": "address",
          "name": "owner",
          "type": "address"
        },
        {
          "indexed": true,
          "internalType": "address",
          "name": "spender",
          "type": "address"
        },
        {
          "indexed": false,
          "internalType": "uint256",
          "name": "value",
          "type": "uint256"
        }
      ],
      "name": "Approval",
      "type": "event"
    },
    {
      "anonymous": false,
      "inputs": [
        {
          "indexed": true,
          "internalType": "address",
          "name": "previousOwner",
          "type": "address"
        },
        {
          "indexed": true,
          "internalType": "address",
          "name": "newOwner",
          "type": "address"
        }
      ],
      "name": "OwnershipTransferred",
      "type": "event"
    },
    {
      "anonymous": false,
      "inputs": [
        {
          "indexed": true,
          "internalType": "address",
          "name": "from",
          "type": "address"
        },
        {
          "indexed": true,
          "internalType": "address",
          "name": "to",
          "type": "address"
        },
        {
          "indexed": false,
          "internalType": "uint256",
          "name": "value",
          "type": "uint256"
        }
      ],
      "name": "Transfer",
      "type": "event"
    },
    {
      "inputs": [
        {
          "internalType": "address",
          "name": "owner",
          "type": "address"
        },
        {
          "internalType": "address",
          "name": "spender",
          "type": "address"
        }
      ],
      "name": "allowance",
      "outputs": [
        {
          "internalType": "uint256",
          "name": "",
          "type": "uint256"
        }
      ],
      "stateMutability": "view",
      "type": "function"
    },
    {
      "inputs": [
        {
          "internalType": "address",
          "name": "spender",
          "type": "address"
        },
        {
          "internalType": "uint256",
          "name": "value",
          "type": "uint256"
        }
      ],
      "name": "approve",
      "outputs": [
        {
          "internalType": "bool",
          "name": "",
          "type": "bool"
        }
      ],
      "stateMutability": "nonpayable",
      "type": "function"
    },
    {
      "inputs": [
        {
          "internalType": "address",
          "name": "account",
          "type": "address"
        }
      ],
      "name": "balanceOf",
      "outputs": [
        {
          "internalType": "uint256",
          "name": "",
          "type": "uint256"
        }
      ],
      "stateMutability": "view",
      "type": "function"
    },
    {
      "inputs": [
        {
          "internalType": "uint256",
          "name": "amount",
          "type": "uint256"
        }
      ],
      "name": "burn",
      "outputs": [],
      "stateMutability": "nonpayable",
      "type": "function"
    },
    {
      "inputs": [],
      "name": "decimals",
      "outputs": [
        {
          "internalType": "uint8",
          "name": "",
          "type": "uint8"
        }
      ],
      "stateMutability": "view",
      "type": "function"
    },
    {
      "inputs": [],
      "name": "name",
      "outputs": [
        {
          "internalType": "string",
          "name": "",
          "type": "string"
        }
      ],
      "stateMutability": "view",
      "type": "function"
    },
    {
      "inputs": [],
      "name": "owner",
      "outputs": [
        {
          "internalType": "address",
          "name": "",
          "type": "address"
        }
      ],
      "stateMutability": "view",
      "type": "function"
    },
    {
      "inputs": [],
      "name": "renounceOwnership",
      "outputs": [],
      "stateMutability": "nonpayable",
      "type": "function"
    },
    {
      "inputs": [],
      "name": "symbol",
      "outputs": [
        {
          "internalType": "string",
          "name": "",
          "type": "string"
        }
      ],
      "stateMutability": "view",
      "type": "function"
    },
    {
      "inputs": [],
      "name": "totalSupply",
      "outputs": [
        {
          "internalType": "uint256",
          "name": "",
          "type": "uint256"
        }
      ],
      "stateMutability": "view",
      "type": "function"
    },
    {
      "inputs": [
        {
          "internalType": "address",
          "name": "to",
          "type": "address"
        },
        {
          "internalType": "uint256",
          "name": "value",
          "type": "uint256"
        }
      ],
      "name": "transfer",
      "outputs": [
        {
          "internalType": "bool",
          "name": "",
          "type": "bool"
        }
      ],
      "stateMutability": "nonpayable",
      "type": "function"
    },
    {
      "inputs": [
        {
          "internalType": "address",
          "name": "from",
          "type": "address"
        },
        {
          "internalType": "address",
          "name": "to",
          "type": "address"
        },
        {
          "internalType": "uint256",
          "name": "value",
          "type": "uint256"
        }
      ],
      "name": "transferFrom",
      "outputs": [
        {
          "internalType": "bool",
          "name": "",
          "type": "bool"
        }
      ],
      "stateMutability": "nonpayable",
      "type": "function"
    },
    {
      "inputs": [
        {
          "internalType": "address",
          "name": "newOwner",
          "type": "address"
        }
      ],
      "name": "transferOwnership",
      "outputs": [],
      "stateMutability": "nonpayable",
      "type": "function"
    }
  ],
  "bytecode": "0x60806040523480156200001157600080fd5b50336040518060400160405280601081526020017f4f50454e2d414c43484920746f6b656e000000000000000000000000000000008152506040518060400160405280600581526020017f414c43484900000000000000000000000000000000000000000000000000000081525081600390816200009091906200074d565b508060049081620000a291906200074d565b505050600073ffffffffffffffffffffffffffffffffffffffff168173ffffffffffffffffffffffffffffffffffffffff16036200011a5760006040517f1e4fbdf700000000000000000000000000000000000000000000000000000000815260040162000111919062000879565b60405180910390fd5b6200012b816200015060201b60201c565b506200014a336b014adf4b7320334b900000006200021660201b60201c565b6200096b565b6000600560009054906101000a900473ffffffffffffffffffffffffffffffffffffffff16905081600560006101000a81548173ffffffffffffffffffffffffffffffffffffffff021916908373ffffffffffffffffffffffffffffffffffffffff1602179055508173ffffffffffffffffffffffffffffffffffffffff168173ffffffffffffffffffffffffffffffffffffffff167f8be0079c531659141344cd1fd0a4f28419497f9722a3daafe3b4186f6b6457e060405160405180910390a35050565b600073ffffffffffffffffffffffffffffffffffffffff168273ffffffffffffffffffffffffffffffffffffffff16036200028b5760006040517fec442f0500000000000000000000000000000000000000000000000000000000815260040162000282919062000879565b60405180910390fd5b6200029f60008383620002a360201b60201c565b5050565b600073ffffffffffffffffffffffffffffffffffffffff168373ffffffffffffffffffffffffffffffffffffffff1603620002f9578060026000828254620002ec9190620008c5565b92505081905550620003cf565b60008060008573ffffffffffffffffffffffffffffffffffffffff1673ffffffffffffffffffffffffffffffffffffffff1681526020019081526020016000205490508181101562000388578381836040517fe450d38c0000000000000000000000000000000000000000000000000000000081526004016200037f9392919062000911565b60405180910390fd5b8181036000808673ffffffffffffffffffffffffffffffffffffffff1673ffffffffffffffffffffffffffffffffffffffff16815260200190815260200160002081905550505b600073ffffffffffffffffffffffffffffffffffffffff168273ffffffffffffffffffffffffffffffffffffffff16036200041a578060026000828254039250508190555062000467565b806000808473ffffffffffffffffffffffffffffffffffffffff1673ffffffffffffffffffffffffffffffffffffffff168152602001908152602001600020600082825401925050819055505b8173ffffffffffffffffffffffffffffffffffffffff168373ffffffffffffffffffffffffffffffffffffffff167fddf252ad1be2c89b69c2b068fc378daa952ba7f163c4a11628f55a4df523b3ef83604051620004c691906200094e565b60405180910390a3505050565b600081519050919050565b7f4e487b7100000000000000000000000000000000000000000000000000000000600052604160045260246000fd5b7f4e487b7100000000000000000000000000000000000000000000000000000000600052602260045260246000fd5b600060028204905060018216806200055557607f821691505b6020821081036200056b576200056a6200050d565b5b50919050565b60008190508160005260206000209050919050565b60006020601f8301049050919050565b600082821b905092915050565b600060088302620005d57fffffffffffffffffffffffffffffffffffffffffffffffffffffffffffffffff8262000596565b620005e1868362000596565b95508019841693508086168417925050509392505050565b6000819050919050565b6000819050919050565b60006200062e620006286200062284620005f9565b62000603565b620005f9565b9050919050565b6000819050919050565b6200064a836200060d565b62000662620006598262000635565b848454620005a3565b825550505050565b600090565b620006796200066a565b620006868184846200063f565b505050565b5b81811015620006ae57620006a26000826200066f565b6001810190506200068c565b5050565b601f821115620006fd57620006c78162000571565b620006d28462000586565b81016020851015620006e2578190505b620006fa620006f18562000586565b8301826200068b565b50505b505050565b600082821c905092915050565b6000620007226000198460080262000702565b1980831691505092915050565b60006200073d83836200070f565b9150826002028217905092915050565b6200075882620004d3565b67ffffffffffffffff811115620007745762000773620004de565b5b6200078082546200053c565b6200078d828285620006b2565b600060209050601f831160018114620007c55760008415620007b0578287015190505b620007bc85826200072f565b8655506200082c565b601f198416620007d58662000571565b60005b82811015620007ff57848901518255600182019150602085019450602081019050620007d8565b868310156200081f57848901516200081b601f8916826200070f565b8355505b6001600288020188555050505b505050505050565b600073ffffffffffffffffffffffffffffffffffffffff82169050919050565b6000620008618262000834565b9050919050565b620008738162000854565b82525050565b600060208201905062000890600083018462000868565b92915050565b7f4e487b7100000000000000000000000000000000000000000000000000000000600052601160045260246000fd5b6000620008d282620005f9565b9150620008df83620005f9565b9250828201905080821115620008fa57620008f962000896565b5b92915050565b6200090b81620005f9565b82525050565b600060608201905062000928600083018662000868565b62000937602083018562000900565b62000946604083018462000900565b949350505050565b600060208201905062000965600083018462000900565b92915050565b6111c6806200097b6000396000f3fe608060405234801561001057600080fd5b50600436106100cf5760003560e01c806370a082311161008c57806395d89b411161006657806395d89b4114610202578063a9059cbb14610220578063dd62ed3e14610250578063f2fde38b14610280576100cf565b806370a08231146101aa578063715018a6146101da5780638da5cb5b146101e4576100cf565b806306fdde03146100d4578063095ea7b3146100f257806318160ddd1461012257806323b872dd14610140578063313ce5671461017057806342966c681461018e575b600080fd5b6100dc61029c565b6040516100e99190610ded565b60405180910390f35b61010c60048036038101906101079190610ea8565b61032e565b6040516101199190610f03565b60405180910390f35b61012a610351565b6040516101379190610f2d565b60405180910390f35b61015a60048036038101906101559190610f48565b61035b565b6040516101679190610f03565b60405180910390f35b61017861038a565b6040516101859190610fb7565b60405180910390f35b6101a860048036038101906101a39190610fd2565b610393565b005b6101c460048036038101906101bf9190610fff565b6103a8565b6040516101d19190610f2d565b60405180910390f35b6101e26103f0565b005b6101ec610404565b6040516101f9919061103b565b60405180910390f35b61020a61042e565b6040516102179190610ded565b60405180910390f35b61023a60048036038101906102359190610ea8565b6104c0565b6040516102479190610f03565b60405180910390f35b61026a60048036038101906102659190611056565b6104e3565b6040516102779190610f2d565b60405180910390f35b61029a60048036038101906102959190610fff565b61056a565b005b6060600380546102ab906110c5565b80601f01602080910402602001604051908101604052809291908181526020018280546102d7906110c5565b80156103245780601f106102f957610100808354040283529160200191610324565b820191906000526020600020905b81548152906001019060200180831161030757829003601f168201915b5050505050905090565b6000806103396105f0565b90506103468185856105f8565b600191505092915050565b6000600254905090565b6000806103666105f0565b905061037385828561060a565b61037e85858561069e565b60019150509392505050565b60006012905090565b61039b610792565b6103a53382610819565b50565b60008060008373ffffffffffffffffffffffffffffffffffffffff1673ffffffffffffffffffffffffffffffffffffffff168152602001908152602001600020549050919050565b6103f8610792565b610402600061089b565b565b6000600560009054906101000a900473ffffffffffffffffffffffffffffffffffffffff16905090565b60606004805461043d906110c5565b80601f0160208091040260200160405190810160405280929190818152602001828054610469906110c5565b80156104b65780601f1061048b576101008083540402835291602001916104b6565b820191906000526020600020905b81548152906001019060200180831161049957829003601f168201915b5050505050905090565b6000806104cb6105f0565b90506104d881858561069e565b600191505092915050565b6000600160008473ffffffffffffffffffffffffffffffffffffffff1673ffffffffffffffffffffffffffffffffffffffff16815260200190815260200160002060008373ffffffffffffffffffffffffffffffffffffffff1673ffffffffffffffffffffffffffffffffffffffff16815260200190815260200160002054905092915050565b610572610792565b600073ffffffffffffffffffffffffffffffffffffffff168173ffffffffffffffffffffffffffffffffffffffff16036105e45760006040517f1e4fbdf70000000000000000000000000000000000000000000000000000000081526004016105db919061103b565b60405180910390fd5b6105ed8161089b565b50565b600033905090565b6106058383836001610961565b505050565b600061061684846104e3565b90507fffffffffffffffffffffffffffffffffffffffffffffffffffffffffffffffff81146106985781811015610688578281836040517ffb8f41b200000000000000000000000000000000000000000000000000000000815260040161067f939291906110f6565b60405180910390fd5b61069784848484036000610961565b5b50505050565b600073ffffffffffffffffffffffffffffffffffffffff168373ffffffffffffffffffffffffffffffffffffffff16036107105760006040517f96c6fd1e000000000000000000000000000000000000000000000000000000008152600401610707919061103b565b60405180910390fd5b600073ffffffffffffffffffffffffffffffffffffffff168273ffffffffffffffffffffffffffffffffffffffff16036107825760006040517fec442f05000000000000000000000000000000000000000000000000000000008152600401610779919061103b565b60405180910390fd5b61078d838383610b38565b505050565b61079a6105f0565b73ffffffffffffffffffffffffffffffffffffffff166107b8610404565b73ffffffffffffffffffffffffffffffffffffffff1614610817576107db6105f0565b6040517f118cdaa700000000000000000000000000000000000000000000000000000000815260040161080e919061103b565b60405180910390fd5b565b600073ffffffffffffffffffffffffffffffffffffffff168273ffffffffffffffffffffffffffffffffffffffff160361088b5760006040517f96c6fd1e000000000000000000000000000000000000000000000000000000008152600401610882919061103b565b60405180910390fd5b61089782600083610b38565b5050565b6000600560009054906101000a900473ffffffffffffffffffffffffffffffffffffffff16905081600560006101000a81548173ffffffffffffffffffffffffffffffffffffffff021916908373ffffffffffffffffffffffffffffffffffffffff1602179055508173ffffffffffffffffffffffffffffffffffffffff168173ffffffffffffffffffffffffffffffffffffffff167f8be0079c531659141344cd1fd0a4f28419497f9722a3daafe3b4186f6b6457e060405160405180910390a35050565b600073ffffffffffffffffffffffffffffffffffffffff168473ffffffffffffffffffffffffffffffffffffffff16036109d35760006040517fe602df050000000000000000000000000000000000000000000000000000000081526004016109ca919061103b565b60405180910390fd5b600073ffffffffffffffffffffffffffffffffffffffff168373ffffffffffffffffffffffffffffffffffffffff1603610a455760006040517f94280d62000000000000000000000000000000000000000000000000000000008152600401610a3c919061103b565b60405180910390fd5b81600160008673ffffffffffffffffffffffffffffffffffffffff1673ffffffffffffffffffffffffffffffffffffffff16815260200190815260200160002060008573ffffffffffffffffffffffffffffffffffffffff1673ffffffffffffffffffffffffffffffffffffffff168152602001908152602001600020819055508015610b32578273ffffffffffffffffffffffffffffffffffffffff168473ffffffffffffffffffffffffffffffffffffffff167f8c5be1e5ebec7d5bd14f71427d1e84f3dd0314c0f7b2291e5b200ac8c7c3b92584604051610b299190610f2d565b60405180910390a35b50505050565b600073ffffffffffffffffffffffffffffffffffffffff168373ffffffffffffffffffffffffffffffffffffffff1603610b8a578060026000828254610b7e919061115c565b92505081905550610c5d565b60008060008573ffffffffffffffffffffffffffffffffffffffff1673ffffffffffffffffffffffffffffffffffffffff16815260200190815260200160002054905081811015610c16578381836040517fe450d38c000000000000000000000000000000000000000000000000000000008152600401610c0d939291906110f6565b60405180910390fd5b8181036000808673ffffffffffffffffffffffffffffffffffffffff1673ffffffffffffffffffffffffffffffffffffffff16815260200190815260200160002081905550505b600073ffffffffffffffffffffffffffffffffffffffff168273ffffffffffffffffffffffffffffffffffffffff1603610ca65780600260008282540392505081905550610cf3565b806000808473ffffffffffffffffffffffffffffffffffffffff1673ffffffffffffffffffffffffffffffffffffffff168152602001908152602001600020600082825401925050819055505b8173ffffffffffffffffffffffffffffffffffffffff168373ffffffffffffffffffffffffffffffffffffffff167fddf252ad1be2c89b69c2b068fc378daa952ba7f163c4a11628f55a4df523b3ef83604051610d509190610f2d565b60405180910390a3505050565b600081519050919050565b600082825260208201905092915050565b60005b83811015610d97578082015181840152602081019050610d7c565b60008484015250505050565b6000601f19601f8301169050919050565b6000610dbf82610d5d565b610dc98185610d68565b9350610dd9818560208601610d79565b610de281610da3565b840191505092915050565b60006020820190508181036000830152610e078184610db4565b905092915050565b600080fd5b600073ffffffffffffffffffffffffffffffffffffffff82169050919050565b6000610e3f82610e14565b9050919050565b610e4f81610e34565b8114610e5a57600080fd5b50565b600081359050610e6c81610e46565b92915050565b6000819050919050565b610e8581610e72565b8114610e9057600080fd5b50565b600081359050610ea281610e7c565b92915050565b60008060408385031215610ebf57610ebe610e0f565b5b6000610ecd85828601610e5d565b9250506020610ede85828601610e93565b9150509250929050565b60008115159050919050565b610efd81610ee8565b82525050565b6000602082019050610f186000830184610ef4565b92915050565b610f2781610e72565b82525050565b6000602082019050610f426000830184610f1e565b92915050565b600080600060608486031215610f6157610f60610e0f565b5b6000610f6f86828701610e5d565b9350506020610f8086828701610e5d565b9250506040610f9186828701610e93565b9150509250925092565b600060ff82169050919050565b610fb181610f9b565b82525050565b6000602082019050610fcc6000830184610fa8565b92915050565b600060208284031215610fe857610fe7610e0f565b5b6000610ff684828501610e93565b91505092915050565b60006020828403121561101557611014610e0f565b5b600061102384828501610e5d565b91505092915050565b61103581610e34565b82525050565b6000602082019050611050600083018461102c565b92915050565b6000806040838503121561106d5761106c610e0f565b5b600061107b85828601610e5d565b925050602061108c85828601610e5d565b9150509250929050565b7f4e487b7100000000000000000000000000000000000000000000000000000000600052602260045260246000fd5b600060028204905060018216806110dd57607f821691505b6020821081036110f0576110ef611096565b5b50919050565b600060608201905061110b600083018661102c565b6111186020830185610f1e565b6111256040830184610f1e565b949350505050565b7f4e487b7100000000000000000000000000000000000000000000000000000000600052601160045260246000fd5b600061116782610e72565b915061117283610e72565b925082820190508082111561118a5761118961112d565b5b9291505056fea2646970667358221220969ded7075a2805ee1739e7781e3196d6e06ff209c7c23bb99d0f825231e1dfe64736f6c63430008140033",
  "linkReferences": {},
  "deployedLinkReferences": {}
}